:100000000C948B010C94171A0C94A8010C94A80161
:100010000C94A8010C94A8010C94A8010C94A801BC
:100020000C94A8010C94A8010C9444210C9418225F
:100030000C94581C0C94A8010C94A8010C94A801D1
:100040000C94A8010C94A8010C94A8010C94A8018C
:100050000C94A8010C94FB1C0C94A8010C94A8010E
:100060000C94A8010C94A8010C94A8010C94A8016C
:100070000C94A8010C94A8010C94A8010C94A8015C
:100080000C94A8010C94A8010C94A8010C94A8014C
:100090000C94A8010C94A8010C94A8010C94A8013C
:1000A0000C94A8010C94A8010C94A80135001E0022
:1000B0001F00200021002200000014001A00080088
:1000C000150017002B0004001600070009000A00A5
:1000D000E1001D001B0006001900050000000000E3
:1000E0002F003000E30000000000000021522A0031
:1000F000E00029002300240025002600270000003E
:100100001C0018000C001200130031000B000D0041
:100110000E000F00330034001100100036003700CD
:100120003800E500000028002D002E00000000002F
:100130002C00E2004C0021520000000045003A0073
:100140003B003C003D003E000100010001000100B9
:100150000100010001000100010001004600010052
:100160000100010001000100010001000000000089
:1001700001004D000100010000000000010001002D
:10018000010001003F0040004100420043004400E4
:10019000AC00AE00AB00A800AA00A90050005100BE
:1001A00052004F00010001000100010001000100A8
:1001B0000100010001000100010001000000000039
:1001C0000100010001000100000000002C034400B8
:1001D00061006300740079006C002D004D00610027
:1001E0006E00750066006F0072006D002000280030
:1001F000350078003600290000000E0374007300FB
:1002000068006F0072007400000004030904090212
:100210003B00020100A0FA090400000103010100F3
:100220000921110100012240000705810308000196
:10023000090401000103000000092111010001224D
:100240007B0007058203200001120100020000006C
:10025000084D44363501000102000105010902A1E3
:100260000185020901A100050919012908150025C8
:1002700001950875018102050109300931158125B3
:100280007F95027508810609381581257F950175CE
:10029000088106050C0A38021581257F950175082D
:1002A0008106C0C005010980A101850319012AB793
:1002B00000150126B700950175108100C0050C09D5
:1002C00001A101850419012AA002150126A00295A9
:1002D0000175108100C005010906A101050719E09B
:1002E00029E715002501950875018102950175081A
:1002F00081010507190029FF150026FF00950675E5
:1003000008810005081901290595057501910295D7
:100310000175039101C011241FBECFEFDAE0DEBFEB
:10032000CDBF11E0A0E0B1E0EEE9F9E402C0059034
:100330000D92AA3AB107D9F722E0AAEAB1E001C0CA
:100340001D92AD3BB207E1F70E94D5130C948E24A9
:100350000C9400008230B8F46C30A8F4463098F465
:1003600050E096E0699F400D511D1124FA0198E478
:10037000899FE00DF11D1124EE0FFF1FE455FF4F83
:1003800085919491089581E090E008950E94AA01DA
:10039000089581E0089581E008950E94CB010895B9
:1003A00008950E94D0010895A5E0B0E0EAEDF1E0E3
:1003B0000C94FA2349835A833091B10189819A813F
:1003C000311119C0662399F0222389F00E94E607B3
:1003D000182F682F89819A810E94C20769817A81CA
:1003E000812F0E94CF0E2596E3E00C9416240E94E4
:1003F000D407182FF3CF0E94E60769817A81F1CFE5
:10040000FC01262F408151816281738184810E9489
:10041000D401089581E00895CF93DF93EC0160E06B
:100420000E940002BE010E94D101DF91CF91089588
:1004300008950E9491060E9418022FEF84E39CE029
:10044000215080409040E1F700C0000008950E94D4
:1004500019020E941F1D08950E9419020E94301D5A
:1004600008950F931F93CF93DF938C0161E00E9457
:100470000002EC01B8010E94CD01811106C080E0AC
:10048000DF91CF911F910F910895B801CE010E9485
:1004900035198823A1F3B801CE010E947E16882366
:1004A00071F3B801CE010E94A718882341F3F80127
:1004B0008281882361F0C330FCE7DF07E9F058F45C
:1004C000C115ECE7DE07A9F0C130DC47B9F0C8017F
:1004D0000E94C901D5CFCB358CE7D807A9F0CC3520
:1004E000ECE7DE0771F0CA35DC4789F70E94300C73
:1004F000EECF0E942702C3CF0E94380C0E942C022C
:10050000BECF0E94260CE3CF0E94340CE0CF0E94A5
:10051000351C0E94AE0208950E94B2020E943A1C4D
:100520000895089581E008950895CF93DF93D82F1B
:100530000E949202C82F882319F08D2F0E949402E6
:100540008C2FDF91CF9108950895CF93C82F0E94EB
:1005500091028C2F0E949502CF91089580E00E9415
:10056000A50208950E943D1B0E94A5020895CF9305
:100570000E943D1BC82F8091AC018C1779F0C0936D
:10058000AC010E94C41C6093AD017093AE018093D6
:10059000AF019093B0018C2F0E94A502CF910895D6
:1005A000ABE0B0E0E6EDF2E00C94FB234F8358871C
:1005B00069877A878B8761110E94710B1E821D8269
:1005C00085E0FE013796DE01119601900D928A9525
:1005D000E1F78C819D81892B61F449815A816B817E
:1005E0007C818D819E810E94990A2B96E2E00C9479
:1005F000172489819A8189238F3F79F3CE0101964F
:100600000E940A028111E9CFF0CFFC018081918123
:100610000E9418080895662329F00E9459140E9428
:100620002C1508950E94B314FACFCF93C82F8823B6
:10063000C9F08238C9F40E943D1B81FD13C089E3D3
:100640000E94290B0E94920B2FEF87EE93E021501E
:1006500080409040E1F700C0000089E30E94310B28
:100660000E94920BCF9108958338A1F40E943D1B04
:1006700080FDF8CF83E50E94290B0E94920B2FEF9B
:1006800081EE94E0215080409040E1F700C00000EE
:1006900083E5E4CF8438A1F40E943D1B82FDE2CFC4
:1006A00087E40E94290B0E94920B2FEF81EE94E0C9
:1006B000215080409040E1F700C0000087E4CECF99
:1006C0008CEF8C0F813AB8F48C2F0E94EB178111BC
:1006D000C9CF6C2F80910001909101010E94C61B2F
:1006E000882329F08C2F0E94310B0E94920B8C2FB3
:1006F0000E94290BB5CF80E28C0F883048F4C77078
:1007000081E001C0880FCA95EAF70E94540BA8CF78
:10071000EBE5EC0FE33040F4F0E0E05AFE4F80816F
:1007200090E00E946A1B9ECFE8E5EC0FEB3150F49D
:10073000F0E0EE0FFF1FE65DFE4F808191810E9489
:100740008F1B90CF83E38C0F833108F08BCF61E058
:100750008C2F0E940B0386CF882309F456C0823861
:1007600079F40E943D1B81FF50C089E30E94290B50
:100770000E94920B89E30E94310B0E94920B089514
:10078000833859F40E943D1B80FF3FC083E50E94DF
:10079000290B0E94920B83E5EECF843859F40E9416
:1007A0003D1B82FF32C087E40E94290B0E94920BFE
:1007B00087E4E1CF9CEF980F913AE8F290E2980F2E
:1007C000983050F4877091E001C0990F8A95EAF74C
:1007D000892F0E945A0BD1CF9BE5980F933028F4B4
:1007E00090E080E00E946A1B089598E5980F9B3185
:1007F00028F490E080E00E948F1B089593E3980F07
:10080000933118F460E00E940B0308951F93CF9377
:10081000DF93182FEB010E941503209739F4812FE5
:100820000E94AC03DF91CF911F9108958FE99FE063
:100830000197F1F700C000002197EFCF70E060E072
:10084000893311F460E570E00E940604089588235E
:1008500021F00E94540B0E94920B0895882321F0EE
:100860000E945A0B0E94920B0895B0E0A0E0EBE3C7
:10087000F4E00C94F4236C01D62FC72FFC011281F5
:10088000058102950F700E944A0BE82E8823E9F03B
:10089000E12E1123D1F08C2F807F803451F080E243
:1008A0008D0F8830F8F0011104C08C2F807E8032CB
:1008B000C9F08091910282FF15C082E00E94F50B81
:1008C0000E944A0B91E0E82EE926BC2EB2949FE0EC
:1008D000B922FBE0FB15B8F1EB2DF0E0E057FB4D42
:1008E0000C94E523E12CF1CF0C2F0F70C07F11F099
:1008F0000295007F112399F0002359F080E28D0FBB
:10090000883010F0D11107C0802F0E94540B0E9434
:10091000920B8D2F63C0802F0E94640BF8CF8D2F18
:100920000E94AC03002379F080E28D0F883010F034
:10093000D11104C0802F0E945A0B03C0802F0E9447
:100940006A0B0E94920B2B2D2850330B243031055B
:1009500020F40E943D1B0E94A502EE2089F00E9417
:10096000460B80FD0DC0F60112820E94400B0E94D2
:100970002007C6010E9451060E94400B0E943007CA
:10098000CDB7DEB7E9E00C9410242C2F2F70F22E97
:10099000C07FC03219F0F29480EFF822DD2381F09D
:1009A000D13009F449C0112309F451C0002309F4DE
:1009B00048C0F601858180FFACCF8F70858341C030
:1009C0008091910282FD15C0112359F0FF2029F07A
:1009D0008F2D0E94540B0E94920B80E00E94150301
:1009E000B2CF80E00E94AC03FF2009F4ACCF8F2D82
:1009F000A2CF112381F0011106C00E94740B8F2930
:100A00000E942704A0CF0130C1F70E94740B8F29E8
:100A10000E947B0B98CF011106C00E94880B8F2D7E
:100A20000E942E0490CF013009F48DCF8F2D0E94AB
:100A30002E040E94880B87CF112329F0063008F07E
:100A400082CF8F2DDDCF053008F07DCFE8CF00239A
:100A500031F3D93349F4FFEF27EE33E0F150204072
:100A60003040E1F700C000008D2F0E94AC036BCF37
:100A70008C2F86958695837069F0813009F063CF5D
:100A80008D2F9C2F9370111102C080E090E00E9486
:100A90008F1B59CF8D2F9C2F9370111102C080E0B6
:100AA00090E00E946A1B4FCF612F8D2F0E940B0395
:100AB0004ACF8C2F8370A1F5111145CF4D2F429550
:100AC00046954770440F440F2D2F2F7030E0042EB1
:100AD00002C0220F331F0A94E2F790E080E0D4FFB7
:100AE00009C08FE090E002C0880F991F4A95E2F795
:100AF00080959095C695C695C370822B932BC23076
:100B000049F058F4C13019F00E94F0061CCF0E9441
:100B1000E70619CF0E94F90616CF0E94E40613CF0C
:100B20008695112311F08C2F8170882309F40BCF47
:100B30004D2F429546954770440F440F2D2F2F702F
:100B400030E0042E02C0220F331F0A94E2F790E037
:100B500080E0D4FF09C08FE090E002C0880F991FA9
:100B60004A95E2F780959095C695C695C370822BFD
:100B7000932BC23049F058F4C13019F00E945B0742
:100B8000E2CE0E945207DFCE0E946407DCCE0E94B4
:100B90000807D9CECF70112329F08C2F0E9420078F
:100BA0008D2F2ECF8D2F0E942E048C2F0E94300768
:100BB000CACED23F41F160F4D03FB9F0D13F81F0CD
:100BC000112309F446C00111A4CE8C2F8F711FC0D0
:100BD000D33F01F1D43FA1F78091910282FD24C05F
:100BE0008C2F8F71112311F312C0112341F00530A6
:100BF00008F0A9CE8C2F8F710E944207A4CE063038
:100C000008F0A1CEF7CF8C2F8F711111CFCF0E949A
:100C1000200799CE112329F08C2F8F710E94140781
:100C200092CE0E940F078FCE112349F0CF718C2FE7
:100C30000E94200763E08C2F0E94D70B84CE81E0B6
:100C40000E94F50B023008F47ECE82E00E94F50B84
:100C50007ACE002359F0D93309F006CF8FEF97EE03
:100C6000E3E081509040E040E1F7FCCE8C2F8F71A3
:100C70009DCF0F931F93CF93DF93EC016881798110
:100C80008A810E9423088C010E946D070E94E3065E
:100C9000B801CE010E943504DF91CF911F910F91D1
:100CA0000895CF93DF93EC018B819C81892B29F0F0
:100CB0008881998189238F3F51F4DF91CF910895E5
:100CC000CE010E943906CE010E940C02F6CFCE0161
:100CD0000E9431028111F4CF0E944A0B882369F3EC
:100CE0008A81882351F38091910282FFE6CF82E0CE
:100CF0000E94F50BE2CF90E080E00E946A1B90E03A
:100D000080E00E948F1B0E94710B0E94920B0E9438
:100D100048150E942C1508950E94390B0E947B06ED
:100D200008950E94610B0E948C06089592959F7011
:100D3000963091F058F4925F9F70923058F4803F53
:100D400019F030F4883E30F481E008959A5FF4CFD2
:100D5000843FD1F380E00895883EB0F3813FD1F71E
:100D6000F3CFFC0183819481892B29F080819181CB
:100D700089238F3F11F480E00895808191810E9442
:100D800018080E9496060895A5E0B0E0EAECF6E0A7
:100D90000C94FB232596E2E00C941724A6E0B0E027
:100DA000E4EDF6E00C94FB232696E2E00C94172485
:100DB00008950E94D80608950E94D9069093D901FB
:100DC0008093D801089508950E94DC06089520912B
:100DD000D8013091D901822B932B0E94DC06089513
:100DE0002091D8013091D901822393230E94DC06FF
:100DF00008952091D8013091D901822793270E942C
:100E0000DC0608950E94D80608950E9402070895FE
:100E10000E9405079093D7018093D601089590E032
:100E200080E00E940807089521E030E0A90102C097
:100E3000440F551F8A95E2F7CA010E9408070895DA
:100E400021E030E002C0220F331F8A95E2F7809143
:100E5000D6019091D701822B932B0E940807089509
:100E600021E030E002C0220F331F8A95E2F720957F
:100E700030958091D6019091D701822393230E94CF
:100E80000807089521E030E002C0220F331F8A9541
:100E9000E2F78091D6019091D701822793270E9493
:100EA000080708952091D6013091D701822B932B0A
:100EB0000E94080708952091D6013091D70182231E
:100EC00093230E94080708952091D6013091D701FD
:100ED000822793270E94080708950895262F2770D8
:100EE00091E001C0990F2A95EAF723E0769567957E
:100EF0002A95E1F7660F771F660F771FFA01E60F55
:100F0000F71F50E040E0682F70E08191DF011197FA
:100F10009B01042E02C0369527950A94E2F72170B2
:100F200021952827292328272C934F5F5F4F443092
:100F3000510559F70895A82FA77023E09695879536
:100F40002A95E1F7880F991F880F991FFB01E80F79
:100F5000F91F50E040E080E0219130E00A2E02C00D
:100F6000369527950A94E2F721703327042E01C0A5
:100F7000220F0A94EAF7822B4F5F5F4F44305105EE
:100F800059F70895262F9C3070F4863060F4682F4E
:100F900070E086E0989F600D711D112442EB51E0D6
:100FA000822F0E946E070895292F9C3068F48630A6
:100FB00058F490E062EB71E036E0239F800D911DC4
:100FC00011240E949B07089580E00895B0E0A0E0FE
:100FD000ECEEF7E00C94F4237C010091D601109123
:100FE000D7018091D8019091D901082B192BCFE01E
:100FF000D0E0CC24C394D12CBC2EC6010C2E02C050
:10100000880F991F0A94E2F780239123892B49F4D2
:10101000219790F7B12C8B2DCDB7DEB7E9E00C947A
:101020001024B7018C2F0E94DB0E019789F3F3CFB8
:10103000CF93DF93EC010E94E607BE010E94DB0E16
:10104000DF91CF9108951F93CF93DF93EB019091A0
:10105000B101992339F0CB010E941808DF91CF919B
:101060001F910895882369F0CB010E94E607182F8D
:10107000682FCE010E94C207BE01812F0E94DB0EA5
:10108000EDCFCB010E94D407182FF6CF1F93CF933B
:10109000DF93C091DA0116E08091DB018C1304C06C
:1010A000DF91CF911F910895D0E01C9FF0011D9F0B
:1010B000F00D1124E452FE4F408151816281738111
:1010C000848195810E94CE062196C770E5CF40911C
:1010D0000C0250910D0260910E0270910F028091EE
:1010E0001002909111020E94CE0608952091DA011B
:1010F0009091DB0156E0291302C080E0089530E0B2
:10110000529FF001539FF00D1124E452FE4F718164
:10111000761306C07081781303C07281741304C003
:101120002F5F3F4F2770E7CF81E008951F93CF9344
:10113000DF9380911102807F09F04BC080910E02F5
:10114000882309F446C08091DA01C091DB01409107
:101150000C0250910D0260910F0270911002D42F79
:10116000D52316E0C817A9F190E061157105A9F122
:10117000DF3F99F1189FF001199FF00D1124DF0155
:10118000A452BE4F11962C911197251326C02C9175
:10119000241323C012962C91129721111EC013966E
:1011A0002D913C91261B370B283C3105B0F48091E2
:1011B00011028F70806180931102EF51FE4F808188
:1011C0008F70806180838CE092E00E9451060E94C3
:1011D0004608DF91CF911F91089501968770C2CF85
:1011E000A1E1B0E0E6EFF8E00C94F1238C0185E09A
:1011F000F801DE011D9601900D928A95E1F7D80164
:101200001296EC9012978CE0A82E82E0B82E4091B6
:101210000F02509110024115510509F471C19091CE
:101220000C0220910D02892F82238F3F09F468C19F
:10123000CC901196DC90119713968D909C901497FA
:10124000F0900E02F401E41BF50BFF2009F406C137
:1012500080911102382F307FE83CF10508F0C0C0C2
:1012600031118BC0FE2C2D1117C09C1115C0E1103F
:1012700013C08F708061809311020E946708C501BE
:101280000E94510680911102D80115968C938F2DE2
:101290006196ECE00C940D2481149104E9F08C2DFE
:1012A0008D218F3FC9F081E08E2580FF17C04E2D24
:1012B0006D2D8C2D0E947608882381F08CE092E0C1
:1012C0000E94510686E0ECE0F2E0DF011D928A9573
:1012D000E9F70E9467084FC080E0E7CF81149104CE
:1012E00049F18C2D8D218F3F29F181E08E25B82F7A
:1012F000B170BB2E80FF37C04E2D6D2D8C2D0E94FE
:101300007608A82E81112FC0CD86DE868D859E851C
:101310000E941808292F22952F70243068F49F709E
:10132000223098F09923A9F0F8019581907F89F4F3
:10133000FA2CADCF80E0DBCF2A5F2F70223068F02F
:10134000C8010E945106AB2CF3CF992311F08823DA
:1013500079F3805E883060F3F3CF803F48F3815F9C
:10136000833070F7E5CFEE2009F491CF8091110220
:10137000816080931102F12C8ACF2D1105C09C1140
:1013800003C0EE2009F487C0C8010E94B10688237B
:1013900019F1EE2009F180911102803270F0209154
:1013A0000C0230910D0238872F8319869B868A861E
:1013B0008C87CE0107960E94510686E0F801ACE0CA
:1013C000B2E001900D928A95E1F70E9496080E9482
:1013D0006708FF24F3945BCFC8010E945106F9CF40
:1013E000311112C0782D998A888AA6016E2D8989BB
:1013F0000E94C4068CE092E00E94510686E0F5014E
:1014000011928A95E9F765CF2D110FC09C110DC07F
:10141000E1100BC015968C93C8010E94510686E01E
:10142000F50111928A95E9F732CFC8010E94B10601
:10143000882391F2EE2081F280911102803208F42B
:10144000BCCF20910C0230910D023A8329831B827C
:101450009D828C828E83CE010196ADCFE83CF10552
:1014600008F040C0FE2CEE2009F4B6CF2D112CC0A0
:101470009C112AC08091110280FD1DC0982F907F81
:10148000D1F015968C931597903F39F0982F907F57
:10149000905F8F70892B15968C93C8010E9451061E
:1014A00086E0F801ACE0B2E001900D928A95E1F798
:1014B0000E946708ECCE86E0F801ACE0B2E0019053
:1014C0000D928A95E1F7E3CEC8010E94B106811121
:1014D00074CF80911102816080931102C8010E9433
:1014E0005106D5CE782D998A888AA6016E2D8989D4
:1014F0000E94C40686E0F50111928A95E9F7D8CFDB
:10150000EE2009F469CFC8010E94B106F82E8823A5
:1015100009F462CF86E0F801ACE0B2E001900D92F0
:101520008A95E1F78CE092E00E9405030E949608FC
:10153000BFCFACE0B0E0EFE9FAE00C94FA234F83C0
:10154000588769877A878B879C87CE0107960E9488
:10155000F0088823B1F08A859B85892B39F04F816B
:101560005885842F85238F3F09F06CC016E0809149
:10157000DA019091DB01891343C02C96E3E00C94CF
:10158000162486E0FE013796DE01119601900D9239
:101590008A95E1F78A859B85892B41F38F81988510
:1015A00089238F3F19F32091DB0130E0C9010196B7
:1015B000877099274091DA014817190671F40E9443
:1015C00091061092DB011092DA0186E0ECE0F2E085
:1015D000DF011D928A95E9F7C9CF96E0929FD0016D
:1015E000939FB00D1124A452BE4FFE01319601907D
:1015F0000D929A95E1F78093DB010E944608B6CFE1
:10160000819FC001112484529E4F0E94F0088823BC
:1016100009F4B3CFE091DA011E9FF0011124E452E6
:10162000FE4F4081518162817381848195810E9446
:10163000CE068091DA0190E0019687709927809319
:10164000DA0195CF69857A858B859C850E94CE06C7
:101650008DCF682F80910001909101010E94FC1BA9
:101660000895682F80910001909101010E94FF1B55
:10167000089580910001909101010E94021C08953B
:1016800080911A02859585958595089580911A0215
:101690008770089590911A02977081E009F480E0B4
:1016A000089580912502089590912502892B8093B9
:1016B0002502089580959091250298239093250204
:1016C000089510922502089590912402892B809309
:1016D00024020895809590912402982390932402E7
:1016E000089510922402089580911B020895089590
:1016F0000E94770B08959091910292FF08C09091FB
:101700001B02981721F080931B020E94780B08950A
:1017100080911B02882329F010921B0280E00E9416
:10172000780B0895CF93DF93E0910001F0910101D0
:10173000809125028083E0910001F0910101808178
:1017400090912402892B808390911B02992381F030
:10175000E0910001F09101018081892B80838091CB
:101760000001909101010E94B41B81110E94880B1D
:10177000C0910001D091010148E050E062E172E0C7
:10178000CE010E943624892B59F088E0FE01A2E1A7
:10179000B2E001900D928A95E1F7CE010E94511BB3
:1017A000DF91CF91089508950E94D30B08959091F1
:1017B000910292FF11C098E0899F90011124622B41
:1017C00060931A020E94200780911A0285958595E0
:1017D00085950E94D40B08950E94200708951092C9
:1017E0001A0280E00E94D40B089590911A0280950D
:1017F000892380931A02282F277091F4282F082E0E
:10180000000C330B9217130659F09091910292FF3E
:1018100007C08595859585950E9430070E94EF0B3E
:1018200008959091910292FB222720F9281769F0E0
:1018300080FB92F990939102809190029091910295
:101840000E94590C82E00E94F50B0895809191024C
:1018500082FB882780F991E089270E94110C089566
:1018600081E00E94110C089580E00E94110C0895FF
:101870006FEF7FEF90E080E00E947824089590E081
:1018800080E00E94542421E0873E9E4F09F020E032
:10189000822F089582E090E00E944C24089583E016
:1018A00090E00E944C24089584E090E00E9454242B
:1018B0000895BC0184E090E00E9478240895AB0173
:1018C000BC018FE090E00E946C240895AB01BC0144
:1018D00083E190E00E946C24089560E070E0CB0109
:1018E0000E94660C089560E070E0CB010E945F0CDE
:1018F0000E946D0C089567EE7EEF90E080E00E94FC
:10190000782460E082E090E00E945A2460E083E066
:1019100090E00E945A241092D9011092D80160E000
:1019200074E184E090E00E94782460E086E090E03A
:101930000E945A246FEF87E090E00E945A2440E012
:1019400050E0BA0188E090E00E946C2460E08DE0F5
:1019500090E00E945A2440E050E0BA0188E190E013
:101960000E946C2460E087E190E00E945A2440E0ED
:1019700050E0BA018CE190E00E946C2470E060E0DD
:1019800080E290E00E94782440E050E0BA0188E1D3
:1019900090E00E946C240E94730C08950E947B0CBE
:1019A0000895682F8EE090E00E945A240895A5E0E3
:1019B000B0E0EDEDFCE00C94F9230E94B81C8C0122
:1019C000809126029091270280179107A1F08FEF56
:1019D00089838A831B820E94B81C8160782F9D8333
:1019E0008C8349815A816B818D810E94D002109332
:1019F0002702009326022596E4E00C9415240E9409
:101A0000C41C609338027093390280933A02909319
:101A10003B026093340270933502809336029093B8
:101A200037020895089508950E94130D08950895AA
:101A30000E94170D089581E0089585E090E10E94CD
:101A4000331B0E94120D0E94140D08950E94D111A3
:101A50000895089508950E94290D0E942A0D089561
:101A60000E9408100E94A40208950E94AF1C0E94C8
:101A7000C50F0E94EC110E9432110E94300D0E948D
:101A800066160E94F6110E94180D0895A5E0B0E0B8
:101A9000ECE4FDE00C94F3230E941B0D81110CC0BB
:101AA0000E94D70C0E94D1110E946A150E94B702B1
:101AB0002596EAE00C940F240E94551188E2A82E86
:101AC00082E0B82E750110E0F70101917F01812FAE
:101AD0000E942E101F5F1C3009F440C00817A1F3AC
:101AE00080913C0281FD0E9434100E94260DC82E78
:101AF00010E0812F0E942E10082FF50181915F01C7
:101B0000081731F1F12CEE24E394D02ED8268D2D38
:101B10008E21B1F0CC20A1F0F9821A8391E0802FC0
:101B20008E2109F490E09B830E94B81C8160782F7D
:101B30009D838C8349815A816B818D810E94D00263
:101B4000F394EE0CF6E0FF12E2CFF501319700833B
:101B50001F5F1C3071F60E94FF0CA4CF0813C0CF8A
:101B60009FCF1F93CF93DF930E94E00EEC01C1152E
:101B700080E5D807F0F5C11580E4D80708F09CC0CF
:101B8000C03ED10520F5CD3CD10508F082C0C83A51
:101B9000D10578F4C53AD10508F073C0C130D1053C
:101BA00019F1209709F1C430D105F0F4D0E0C0E07C
:101BB0001BC0C33CD105D0F7C85AD0E0CC0FDD1F05
:101BC000CD59DE4F0990D881C02DD4640DC0C11508
:101BD00080E2D80708F0D1C0C11581E0D80708F02D
:101BE0005AC0C83ED10510F7CE01DF91CF911F91A9
:101BF0000895C03682E5D80718F5C03482E5D807C5
:101C000008F06BC0C03282E5D80708F05FC0C1158C
:101C100082E5D80708F497C02C2F2695269580E2F8
:101C2000289F900111248C2F8370C1E0D0E002C066
:101C3000CC0FDD1F8A95E2F7C22BD32BDD68D4CF02
:101C4000C03A82E5D80760F4C03882E5D80708F4C6
:101C500059C0CF71D0E0DC2FCC27C46FD06AC4CF7D
:101C6000C03C82E5D80708F462C0C03E82E5D807D0
:101C700008F09CCFDC2FCC27CC27DF71C06FD06A57
:101C8000B3CFC55AD0E0C756DE4FC881D0E0D0648C
:101C9000ABCFD065A9CF8D2F0E94820F182FCE0118
:101CA00099270E94E00EC12FD0E0DC2FCC27CC2753
:101CB000DF71C82BD92B98CFCE0199270E94E00E57
:101CC000CC27DF70C82BD92BD06A8ECFCF71D0E054
:101CD000DC2FCC27C16FD06A87CF2C2F2695269575
:101CE000277080E2289F900111248C2F8370C1E01F
:101CF000D0E002C0CC0FDD1F8A95E2F7C22BD32BB8
:101D0000DC6872CF2C2F26952695277080E2289FBD
:101D1000900111248C2F8370C1E0D0E002C0CC0F61
:101D2000DD1F8A95E2F7C22BD32BDA685DCF8C2FAB
:101D30008F710E94820FC82FD0E0DC2FCC27CC27D8
:101D4000DF71D06251CF8C2F8F710E94820F55E0CE
:101D5000D695C7955A95E1F7CF70D0E0DC2FCC2708
:101D6000282F30E084FF05C044E0220F331F4A953E
:101D7000E1F7C22BD32BD06937CF8D2F8F710E9403
:101D8000820F182FCE0199270E94E00EC12FD0E0BC
:101D9000DC2FCC27CC27DF71C82BD92BD2CF462FF5
:101DA0007C3030F4663020F4672F0E94C60108951D
:101DB00090E080E008950E94CF0E0E94B10D08953A
:101DC00082389105B9F1B0F48133910509F47DC0F1
:101DD00048F48932910509F46DC08A32910509F4FD
:101DE0007BC008958533910509F45FC0893391055F
:101DF00009F10895833E9105D9F138F4803E9105AB
:101E000029F1823E910579F10895863E9105D9F137
:101E1000873E910509F43EC0843E910541F520912D
:101E2000910221FF24C08091900284FD19C087EEA9
:101E300090E0089520919002237009F05AC02091FB
:101E4000910223FF14C089E290E00895209190024E
:101E500020FD38C03091910230FF09C024FF43C0FB
:101E600090E080E008952091900222FDF7CF089540
:101E70002091900222FD3AC03091910230FD39C08C
:101E800024FFF5CFEDCF2091900223FFF0CF24FD6A
:101E9000E7CFCDCF2091900223FD2EC0309191024B
:101EA00031FFEECF84EE90E008952091900225FF5F
:101EB000DECFC9CF2091900225FD21C02091910253
:101EC00023FFD5CF89E390E0D2CF2091900226FF67
:101ED000CECF8AE290E008952091900226FFC7CFEE
:101EE00081E390E0089583EE90E0089582EE90E023
:101EF000089580EE90E0089586EE90E0089585E3E1
:101F000090E008959091900292FF06C0282F2871CA
:101F10002830F9F4877F846093FF06C0282F28714A
:101F20002831F1F4877E84612091910220FF06C060
:101F3000382F38713830D9F4877F816021FF06C08F
:101F4000282F28712831D1F4877E816194FD877E06
:101F50000895282F24712430F9F68B7F8860DCCF18
:101F6000282F2471243101F78B7E8861DDCF382F33
:101F70003171313019F78E7F8860E0CF282F2171C1
:101F8000213121F78E7E8861E1CF10928C02109270
:101F90008D0210928E0210928F020895CF92DF92DE
:101FA000EF92FF926B017C010E94D11181110EC052
:101FB0000E94C41CC61AD70AE80AF90AC0928C0209
:101FC000D0928D02E0928E02F0928F02FF90EF90FD
:101FD000DF90CF9008950F931F930E94D111882313
:101FE00029F00E94C41C1F910F9108950E94C41CE7
:101FF00000918C0210918D0220918E0230918F02FF
:10200000600F711F821F931FEECF80E00895089527
:102010000E943F0C811102C00E94CE0C0E944A0C0B
:1020200080933C020E94540C909391028093900202
:102030000E9407100E944F0C90E00E94E4068091DD
:10204000D6019091D7010E940507089508950E9436
:102050002610089508950E942A100895E82FF0E0B0
:10206000E156FD4F80810895089580EA8A95F1F741
:10207000089500C008950E943510089508950E94A3
:102080003E100895A6E0B0E0E8E4F0E10C94F723F8
:102090000E94D111F82E6091AB02882309F440C050
:1020A00086E0E82E8E010F5F1F4FF8018E2D1192F2
:1020B0008A95E9F7862F90E0B80181569D4F0E94DE
:1020C00004128823B9F08091920290E046E050E03B
:1020D000B80181569D4F0E94362421E020933D0295
:1020E000892B91F4F12C0E942B108F2D2696E6E07F
:1020F0000C94132480913D028823A1F3F8011192DE
:10210000EA94E9F710923D02A0919202B0E0A15644
:10211000BD4F86E0F80101900D928A95E1F7E3CF7B
:1021200070E061567D4F8091920290E081569D4F04
:102130000E948B120E943F10D8CFF894E82FE295AE
:10214000EF70F0E031A1282F2F7081E090E001C006
:10215000880F2A95EAF7982F9095932391A392A13F
:10216000892B82A3789408950F931F93CF93DF93C5
:10217000C2EAD1E089918F3F11F00E949D1081E069
:10218000C83AD807B9F7CCE9D1E002EA11E0899161
:102190008F3F11F00E949D100C171D07C1F7DF91B2
:1021A000CF911F910F910895B0E0A0E0EAEDF0E12A
:1021B0000C94F523EC01D62E062F10E0C8018E55A5
:1021C0009E4F7C01FC0180818F3F09F444C0F8944C
:1021D000E82FE295EF70F0E091A18F7021E030E000
:1021E00001C0220F8A95EAF7892F822B81A382A151
:1021F0002095282322A378940E943910ECE9F1E07D
:1022000031E0C12C21912F3F59F1A22FA295AF703F
:10221000B0E090968C9190E02F7002C095958795D4
:102220002A95E2F780FD1CC0832FC82A330F81E076
:10223000E23AF80739F7F70180818F3F11F00E94E9
:102240009D1061E0C11001C060E08D2D0E943B1027
:10225000C00FD11FC882CDB7DEB7E8E00C941124BF
:1022600080E0E3CF809102018091020196E081112C
:1022700090E09093AB0286E0891B809392020E94CB
:10228000B4108CE0EFE9F2E0DF01982F1D929A95EF
:10229000E9F7E3E9F2E0DF011D928A95E9F786E0CC
:1022A0000E9493110E9427100895ACE0B0E0EBE586
:1022B000F1E10C94F8238E010F5F1F4F8CE0F801C1
:1022C00011928A95E9F7F12C6F2DC8010E94D41064
:1022D000F394F6E0FF12F8CF4CE050E0B80183E948
:1022E00092E00E94362421E0009709F420E0892B37
:1022F00041F08CE0F801A3E9B2E001900D928A95DB
:10230000E1F76091AB0270E061567D4F46E083E9F2
:1023100092E00E949411182F0E944210812B2C965B
:10232000E5E00C9414240895CF92DF92EF92FF928F
:102330000F931F93CF936C017B01042F222349F04D
:1023400081E0809340020E94B81C90933F028093EA
:102350003E02C0914002C1110AC0C0E08C2FCF9153
:102360001F910F91FF90EF90DF90CF900895809193
:102370003E0290913F020E94D01C059770F310E03E
:10238000A801B601C7010E943624892B41F0A8019B
:10239000B601C7010E94432410924002DFCFC0E083
:1023A000FBCF80914302811107C00E94C423882380
:1023B00051F081E08093430281E09091430291309B
:1023C00009F080E0089582E0809343020E94BF23D9
:1023D000F3CF0E94D11108950E94E9118093020168
:1023E0000E94D11181110E943A1208950E94D111C8
:1023F000811102C00E943D12089581E09091440233
:102400009A3008F080E008950F931F93CF93DF93E5
:10241000EC018B01809144028A30B8F4B801CE01FE
:102420000E948812C82F811122C0809144028F3FE0
:10243000B9F40E94B81C90934202809341028C2F01
:10244000DF91CF911F910F9108958091410290915A
:1024500042020E94D01C843F914000F7C0E0EFCFC1
:102460008F5F809344028A3020F7C1E0E8CF10925A
:102470004402E5CF0E94D11908950E94D41908950D
:10248000B0E0A0E0E6E4F2E10C94F6237901C82F75
:10249000880FDD0B41155105A9F0FE0193E0EE0F09
:1024A000FF1F9A95E1F7ED5FFE4F818192818B5B73
:1024B0009D4F208130E04217530708F49A01A9018B
:1024C0000E944324CE010E94BD1AD82E8823D1F049
:1024D00001151105B9F083E0CC0FDD1F8A95E1F7F6
:1024E000FE01ED5FFE4F438150E00417150708F42D
:1024F000A801CD5FDE4F6C817D816B5B7D4FC70195
:102500000E9443248D2DCDB7DEB7E7E00C94122452
:102510000E947A1308950E9491130895A4E0B0E0F8
:10252000E4E9F2E10C94F92360915E0270915F029C
:1025300080916002909161020E94DF1C11E064367C
:1025400071058105910518F10E94EB0F6E5F7F4FB9
:102550008F4F9F4F69837A838B839C8310E000E0C9
:1025600030E020E044E050E0BE016F5F7F4F82E04A
:102570000E944012182F882351F00E94C41C6093BF
:102580005E0270935F028093600290936102812FDC
:102590002496E4E00C941524B0E0A0E0E2EDF2E132
:1025A0000C94F3237C015B016A010E94FD1101E0A0
:1025B00010E0882311F00AE010E0C1E0D0E0B5019E
:1025C000C701F6010995811104C021960C171D075A
:1025D0002CF4CDB7DEB7EAE00C940F24CC9F900129
:1025E000CD9F300D300D112490E080E045E34A95F9
:1025F000F1F70000019682179307C1F7E0CFA7E03B
:10260000B0E0E5E0F3E10C94F3237B01C090A80176
:10261000D090A90101E010E09E01295F3F4F50E0FA
:1026200040E070E060E080E00E944012182F8823B4
:1026300009F448C056018FEFA81AB80A60915A02EF
:1026400070915B0280915C0290915D020E94DF1CA0
:10265000643671058105910568F106E010E09E0180
:102660002F5F3F4F50E040E070E060E081E00E946B
:102670004012D82E66E070E0C5010E94671611E096
:102680009F81981310E01D2141F10E94C41C6093AA
:102690005A0270935B0280935C0290935D0286E025
:1026A000FE013196A4E5B2E001900D928A95E1F722
:1026B00011E013C066E070E0C5010E9467169F81BB
:1026C0008913CBCF86E0F6013196DE011196019099
:1026D0000D928A95E1F71111E2CF86E0E4E5F2E090
:1026E000D70101900D928A95E1F7812F2796EAE0B4
:1026F0000C940F240F931F93CF93DF93EC018B0166
:102700004FEF52E10E94CC12882331F04EE852E1A3
:10271000B801CE010E94CC12DF91CF911F910F9191
:1027200008950F931F93CF93DF93C091A801D09189
:10273000A901CE01019626E0FB01DC0101900D927A
:102740002A95E1F766E070E00E94671688836F8142
:10275000788589859A8500915002109151022091C7
:10276000520230915302601771078207930751F0AC
:1027700060935002709351028093520290935302DF
:102780000E94CE0FDF91CF911F910F9108950E946B
:10279000951E0E94350D0E94A21E08950E94A71E3C
:1027A0000E94460D0E94C11E08950E94511C0E9465
:1027B0007B1E0E941D0D0E94C7130E94CE130E9413
:1027C0002B0DFBCF80916A0280FF0DC060911F012D
:1027D00070E0660F771F6038710570F5611571053F
:1027E00069F1862F089581FF07C060911F0184E081
:1027F000689FB0011124EFCF60911F0182FD0AC0D4
:10280000809169028823A9F020911E0160911F0127
:10281000821710F088E0ECCF869FC001112433E0CE
:10282000880F991F3A95E1F7622F70E00E94D1233B
:10283000D2CF68E070E0D5CF8FE7089581E00895AA
:1028400080916A0280FF0CC060911C0170E0759558
:102850006795759567956115710549F1862F0895FE
:1028600081FF06C060911C0170E075956795F3CFFC
:1028700060911C0182FD0BC0909168029923A1F028
:1028800060911B0180911C01961738F0682F70E051
:102890006038710500F38FE70895899FC001112406
:1028A00070E00E94D123F4CF61E070E0D7CF81E0E7
:1028B00008958D3C31F40E94E213819580936E025D
:1028C00008958E3C19F40E94E213F8CF8F3C31F446
:1028D0000E94E213819580936D020895803D19F462
:1028E0000E94E213F8CF893D29F40E9420148093BE
:1028F0006F0208958A3D21F40E9420148195F7CF3C
:102900008B3D31F40E9420148195809370020895CC
:102910008C3D19F40E942014F8CF9FE2980F983054
:1029200070F4815D990B21E030E001C0220F8A959F
:10293000EAF780916C02822B80936C0208958D3DA2
:1029400031F480916A02816080936A0208958E3D1D
:1029500021F480916A028260F7CF8F3DB9F78091B0
:102960006A028460F1CF40916D028D3C59F48091F0
:102970006E0287FF0DC010926E0241110BC01092C3
:10298000690208C08E3C81F480916E0218169CF397
:10299000442381F080916F0290917002892B09F09D
:1029A0005AC01092680208958F3C49F447FFF0CF57
:1029B00010926D0280916E028111ECCFE0CF803DCC
:1029C00019F41416ACF3E4CF90916F02893D29F409
:1029D0001916F4F610926F02DBCF8A3D19F497FFB7
:1029E000D7CFF8CF909170028B3D29F497FFD0CFCD
:1029F00010927002CDCF8C3D19F41916CCF3C8CFCC
:102A00009FE2980F983090F4815D990B21E030E0BF
:102A1000B90102C0660F771F8A95E2F7CB01809556
:102A200090916C02892380936C02B2CF8D3D31F47A
:102A300080916A028E7F80936A02AACF8E3D21F434
:102A400080916A028D7FF7CF8F3D09F0A1CF8091F1
:102A50006A028B7FF0CF08950E94B81C9C01909170
:102A60006D0280916E02982B21F0309367022093C3
:102A7000660290916F0280917002982B21F0309342
:102A80006502209364028BE692E00E945C1B08952D
:102A900086E0EBE6F2E0DF011D928A95E9F71092FD
:102AA00069021092680210926A020895FC01828104
:102AB00081110EC0838181110BC08481811108C0F6
:102AC00091E08581811101C090E0892F8170089586
:102AD00081E0FCCFA6E0B0E0E0E7F5E10C94FA235A
:102AE00086E0EBE6F2E0DE01119601900D928A9508
:102AF000E1F710926D0210926E0210926F02109226
:102B000070028B819C81892B89F080916602909163
:102B100067020E94D01CAC01909169029923C9F10F
:102B2000809120018417150608F440C08D819E8194
:102B3000892B91F080916402909165020E94D01CD3
:102B4000AC0190916802992309F471C080911D0134
:102B50008417150608F479C0BE016F5F7F4F8BE6BE
:102B600092E00E94091C811105C08BE692E00E9450
:102B7000561581110E942C1586E0FE013196ABE6B8
:102B8000B2E001900D928A95E1F72696E3E00C946D
:102B90001624209163028AE0289F900111242417B3
:102BA000350720F69F5F9093690202C09F3FD1F7DF
:102BB0001B81112359F00E94E2139FEF11160CF4B0
:102BC00091E0899F802D112480936D021C81112337
:102BD00059F00E94E2139FEF11160CF491E0899FC7
:102BE000802D112480936E0230916D02332309F4FD
:102BF0009DCF20916E02222309F498CF45EB340338
:102C0000C0011124992359F090936D0245EB2403E0
:102C100090011124332339F030936E0287CF81E085
:102C200080936D02F3CF81E080936E027FCF20917D
:102C300062028AE0289F900111242417350708F0CA
:102C40008BCF9F5F9093680202C09F3FD1F71D8199
:102C5000112359F00E9420149FEF11160CF491E0FB
:102C6000899F802D112480936F021E81112359F0BA
:102C70000E9420149FEF11160CF491E0899F802D83
:102C800011248093700230916F02332309F464CFD2
:102C900020917002222309F45FCF45EB3403C00179
:102CA0001124992359F090936F0245EB240390016E
:102CB0001124332339F0309370024ECF81E080939A
:102CC0006F02F3CF81E08093700246CF0895FC013C
:102CD000680F791F8FEF91E3E617F70709F408955E
:102CE0002191822728E030E087FF06C0880F8927DE
:102CF00021503109C9F7F0CF880FFACFCF93DF9376
:102D0000EC01FB018281882309F4D2C09E01305777
:102D10002332310508F0B2C00E94540C9093910206
:102D200080939002FE01E150F047E232F10520F479
:102D3000E456FB4D0C94E5238091900281608093D2
:102D4000900293C0809191028860809391028DC01F
:102D5000809190028260F3CF809190028460EFCFE7
:102D6000809190028860EBCF809191028160EDCFDD
:102D7000809191028260E9CF809190028061DFCFE3
:102D8000809190028062DBCF809190028064D7CFE7
:102D90000E949106809190028068D1CF809190022C
:102DA0008C60CDCF809191028360CFCF80919002D3
:102DB0008E7FC5CF80919102877FC7CF809190028F
:102DC0008D7FBDCF809190028B7FB9CF8091900293
:102DD000877FB5CF809191028E7FB7CF809191028E
:102DE0008D7FB3CF809190028F7EA9CF809190028A
:102DF0008F7DA5CF809190028F7BA1CF0E949106FD
:102E0000809190028F779BCF80919002837F97CFA4
:102E1000809191028C7F99CF8091900282FB9927BB
:102E200090F921E0922790FB82F990FB83F987CFFC
:102E300080919102982F909591708E7F892B90FBB5
:102E400081F983CF90919002892F8F7B96FF8064C8
:102E500076CF0E94910690919002892F97FB87F977
:102E600080586DCF81E00E94D10C809190029091AA
:102E700091020E94590C0E94910680E0DF91CF914F
:102E8000089580E0F0CF90919002892F8F7E94FF7B
:102E9000806155CF90919002892F8E7F90FF816045
:102EA0004ECF90919102892F877F93FF88604DCFFD
:102EB00081E0E4CF8B3109F465C040F58B3071F0CF
:102EC00078F4863009F447C020F4853059F180E069
:102ED0000895873009F448C08830C9F781E0089523
:102EE000803109F45DC068F48E3089F790913C021E
:102EF000892F8B7F92FF846080933C0282FD4CC0BF
:102F0000EDCF863159F3893149F3E1CF8A3201F1AE
:102F100060F48732B1F020F48E31C8F28D514CC08C
:102F20008932A9F60E942702D9CF833440F48A332C
:102F300008F041C0853329F0883381F2C8CF83344B
:102F400031F681E090E00E94E4060E949106C6CF2F
:102F50000E94CE0CC3CF80913C02807F80933C02C4
:102F600081E080937402089590913C02892F8E7FB6
:102F700090FF816080933C0280FDB0CF817F809381
:102F80003C02ACCF90913C02892F8D7F91FF8260F3
:102F900080933C0281FFA2CF80913C028160EFCF01
:102FA00090913C02892F877F93FF886080933C0239
:102FB00083FDF2CF93CF895321E030E0A90102C015
:102FC000440F551F8A95E2F7CA01BDCF80E00895EE
:102FD0000E94E6170895CF93C82F80917402813024
:102FE000B9F0882331F08230A1F11092740280E0B0
:102FF0000DC00E94510B8232D1F78C2F0E94E61730
:1030000081111BC08C2F0E945A178170CF91089597
:103010000E94510B823289F38C2F0E94E817811194
:103020000AC0C43199F060F4CB3029F0C03169F79F
:1030300082E08093740281E0E8CF81E090E0E5CF08
:10304000C93221F0C833B9F380E0DFCF10927402A7
:10305000FBCFC93209F43FC0E8F4C431E1F128F4F0
:10306000C73009F45BC081E0D1CF82EE8C0F8A308B
:10307000D0F7CD51C0937302C33009F446C0B0F508
:10308000C13009F43FC080E291E0C230B1F110924A
:103090007302E9CFC03509F452C0B8F48AE0CF34E6
:1030A00011F7E0917102F09172023097E1F2208104
:1030B000082E000C990B820F911D8F3F910509F08E
:1030C0000CF441C08FEF8083CECFC135D1F181E0C8
:1030D000C23539F39BCF80917302882321F210927D
:1030E00073021092720210927102BDCFC53099F036
:1030F00078F08BE191E0C63051F6909372028093A4
:103100007102B1CF83E692E0F8CF8FE191E0F5CF85
:103110008EE191E0F2CF8CE191E0EFCF109263026B
:1031200084E180932001C0931F018CE380931E01F2
:1031300088E080931C0188E280931B0194CF86EF86
:10314000B0CF8FEFAECF97FFBECF10828CCFCF9393
:10315000DF93EB0186319C4711F50E94510B9A8158
:10316000992399F08A7A91E009F490E0909375029E
:10317000811109C089E20E94290B0E94920B80E014
:10318000DF91CF91089585E3F6CF8091750281118B
:1031900004C089E20E94310BF0CF85E3FBCF81E0D0
:1031A000EFCF0F931F93CF93DF93C42FD22FFC0148
:1031B00082818823C9F0409378020E94B81C9093C2
:1031C00077028093760280E28C0F883040F4C770DB
:1031D00081E001C0880FCA95EAF70E942704DF91B9
:1031E000CF911F910F91089510917802141332C05E
:1031F00080917602909177020E94D01C883C9105C4
:1032000048F5C0E2CD0F1D17B9F080E2810F88307C
:1032100040F4177081E001C0880F1A95EAF70E9408
:103220002E04C83048F481E09D2F977001C0880FAC
:103230009A95EAF70E942704802F0E941E04C83046
:1032400070F6D77081E001C0880FDA95EAF70E9426
:103250002E04C5CF80E28C0F883008F6C77081E05D
:1032600001C0880FCA95EAF7F2CF0F93DB018851AE
:103270009C4787309105A0F5FC01E254FB4D0C946E
:10328000E52306E221EE41EE6AE17CE7CD010E94F2
:10329000D11880E00F91089507E225EE45EE6BE12D
:1032A0007CE7F4CF06E221EE40EE68E17CE7EECF6A
:1032B00007E225EE44EE69E17CE7E8CF06E221EE85
:1032C00042EE6CE17CE7E2CF07E225EE46EE6DE1EF
:1032D0007CE7DCCF08E221E045EE6EE17CE7D6CF6B
:1032E00012968C91882319F010927802D3CF81E046
:1032F000D1CF8EE1489B02C08150E1F7489BFECFC1
:103300000895589880E28A95F1F7589A0895FC013B
:103310003BE03A95F1F798E020E080E031E040E1D1
:103320004A95F1F7880F489B02C08160232742E04D
:103330004A95F1F7000040E14A95F1F7915079F78D
:1033400090E19A95F1F799B132E03A95F1F70000E2
:1033500040E14A95F1F7917092272081920F908376
:103360000895A1E0B0E0E7EBF9E10C94F7231982AE
:103370008C017C01E60EF11C0E151F0541F481E065
:103380009981911180E02196E6E00C9413240E942B
:103390007919CE0101960E948719F80181938F0156
:1033A000EBCF509A589A08955098589AE89AE9E6BF
:1033B000F0E080818C7F808308956150770B91E0ED
:1033C00001C0990F6A95EAF720E031E0911108C039
:1033D000222391F0589A80E28A95F1F7589808953F
:1033E000492F482339F0589A232740E24A95F1F7AC
:1033F0009695ECCF5898F9CF5898EDCFFF920F9350
:103400001F93CF93DF93EC018C01060F111DC017A2
:10341000D10729F4CDB7DEB7E5E00C941424F99078
:103420000E94811968E08F2D0E94DD19F0CF1F9254
:103430000F920FB60F9211240F931F932F933F9368
:103440004F935F936F937F938F939F93AF93BF93AC
:10345000EF93FF93CF93DF930F92CDB7DEB719822F
:103460000E947919CE0101960E948719082F0695AE
:1034700006950695282F22952570902F9570290F77
:10348000922F937026952695920F98279770898191
:10349000982B09F05CC0043008F059C080E18A958F
:1034A000F1F7589A509A82E08A95F1F700C058983F
:1034B00088E0089F80011124D801AD5FBE4F1696A9
:1034C000ED91FC9117973097A9F06091A801709148
:1034D000A90114962D913C911597260F371F11962F
:1034E0008D919C911297680F791F13964C911397A9
:1034F0008C910995F801ED5FFE4F6381662351F0D1
:103500002091A8013091A90184819581820F931F98
:103510000E94FE190E94811980E18A95F1F758985E
:103520005098589A80E18A95F1F7F801ED5FFE4FC7
:103530006081662351F02091A8013091A901818119
:103540009281820F931F0E94B1190E9479190F90E6
:10355000DF91CF91FF91EF91BF91AF919F918F91AB
:103560007F916F915F914F913F912F911F910F919B
:103570000F900FBE0F901F9018950F931F93CF932E
:10358000DF93EC0104970CF04CC0F894509A5898D3
:1035900085E08A95F1F700009C2F969595708C2F09
:1035A0008570980F892F83709695969523E0CC0FA0
:1035B000DD1F2A95E1F7980F8E01092B0E948119D2
:1035C00000C068E0802F0E94DD1980E18A95F1F744
:1035D0005098589A489B1EC087E090E048991CC0BC
:1035E000FE01ED5FFE4F63816623F9F02091A80193
:1035F0003091A90184819581820F931F0E94B11996
:10360000811113C0509A589A7894DF91CF911F91ED
:103610000F91089500C0DECF019729F4509A589A6F
:10362000789480E0F2CF00C0D9CF0E94791980E26F
:103630008A95F1F75898509A80E18A95F1F7CD5F15
:10364000DE4F6881662351F02091A8013091A901D5
:1036500089819A81820F931F0E94FE190E9481190D
:10366000789481E0D2CF9093AB018093AA01089522
:1036700090937F0280937E0208950E94D111811160
:1036800003C0809179020895E0917E02F0917F025B
:10369000309729F00190F081E02D0995089580E0A0
:1036A0000895E0917E02F0917F02309721F0028030
:1036B000F381E02D09950895E0917E02F0917F025B
:1036C000309739F022E0DC012C930480F581E02D65
:1036D00009950895A3E0B0E0E0E7FBE10C94FB233B
:1036E00020917C0230917D0228173907A1F0909338
:1036F0007D0280937C02E0917E02F0917F02309700
:1037000051F023E029839B838A830680F781E02D93
:10371000CE01019609952396E2E00C941724A3E0CC
:10372000B0E0E5E9FBE10C94FB2320917A023091B3
:103730007B0228173907A1F090937B0280937A02CD
:10374000E0917E02F0917F02309751F024E02983CE
:103750009B838A830680F781E02DCE01019609952F
:103760002396E2E00C9417249C012E5F3F4FAC019E
:10377000485F5F4F80E02417350709F40895F90189
:1037800091919F019923B9F38F5FF5CF662349F09B
:10379000FC01329608962191261729F0E817F907BF
:1037A000D1F780E0089581E008959C01FC013296F4
:1037B0009FEF80E04191461751F09F3F19F441116E
:1037C00001C0982F8F5F8630A9F79F3F09F40895B5
:1037D000290F311D97FD3A95F90162830895FC0187
:1037E000329608962191261303C0DF0111971C928F
:1037F000E817F907B9F708950E94D51B08950E94AC
:10380000EF1B0895029626E0FC0111922A95E9F734
:10381000089546E050E00E94362421E0892B09F407
:1038200020E0822F089508950E94131C08958111AD
:1038300006C081E0809380020E94141C089582E0FB
:10384000F9CF83E0809380020E94141C08950E94A7
:10385000171C089581E0809380020E94141C089533
:103860000E942A1C0895089508950E94341C08950A
:10387000089508950E94331C0895CF930E94381C28
:103880000E9455110E94391CC0E08C2F0E942E10FE
:10389000811105C0CF5FCC30C1F7CF91089581E091
:1038A000FCCF85B7806885BF85B7806885BF0895E0
:1038B0001F921FB61F9211248F939F93AF93BF93B4
:1038C00080918102811113C08091AC029091AD0270
:1038D000A091AE02B091AF024196A11DB11D80939F
:1038E000AC029093AD02A093AE02B093AF02BF9131
:1038F000AF919F918F911F901FBE1F90189580913F
:10390000B402843031F10E9487021092810288E172
:1039100090E020E40FB6F894A895809360000FBE65
:103920002093600083B7817F846083BF83B7816009
:1039300083BF7894889583B78E7F83BF0FB6F89442
:10394000A89580916000886180936000109260006B
:103950000FBE08950E9491060E948C02089582E095
:1039600084BD93E095BD9AEF97BD80936E00089556
:103970002FB7F8948091AC029091AD02A091AE0265
:10398000B091AF022FBF08952FB7F8946091AC02A9
:103990007091AD028091AE029091AF022FBF089559
:1039A0009C014FB7F8948091AC029091AD02A09128
:1039B000AE02B091AF024FBF821B930B0895CF921E
:1039C000DF92EF92FF922FB7F894C090AC02D090A4
:1039D000AD02E090AE02F090AF022FBFA7019601BA
:1039E000261B370B480B590BCA01B901FF90EF900A
:1039F000DF90CF90089578941F921FB61F921124E4
:103A00008F939F93AF93BF938091AC029091AD023F
:103A1000A091AE02B091AF020196A11DB11D80939D
:103A2000AC029093AD02A093AE02B093AF02BF91EF
:103A3000AF919F918F911F901FBE1F90189587E7A0
:103A400097E7909301088093000888E19AE00FB609
:103A5000F894A895809360000FBE90936000FFCF0C
:103A600088E19AE00FB6F894A895809360000FBEA5
:103A700090936000FFCF80918A0208959B01BA0164
:103A80009091B4029430E9F48F708093E9009FEF35
:103A90008091E800915085FD06C085ED8A95F1F78B
:103AA00000009111F5CF8091E80085FF0AC050E039
:103AB00040E0C9010E94381F8091E8008E77809312
:103AC000E800089543E050E0BC0182E00E943E1D02
:103AD000089546E050E0BC0182E00E943E1D08953A
:103AE000CF93DF93EC0148E050E0BC0181E00E94FD
:103AF0003E1D88E0FE01A2E8B2E001900D928A9599
:103B0000E1F7DF91CF9108958091B302811109C04F
:103B10000E94C8200E9425218091E2008460809349
:103B2000E20008951092B30208950E942A1C08959D
:103B30006091B00281E0611101C080E00E94211C0F
:103B400008959091B40281E0943009F080E0609192
:103B5000B0020E94271C089542E061EC81E00E94BF
:103B6000442042E261EC82E00E9444209091B40241
:103B700081E0943009F080E06091B0020E94171C4F
:103B800008958091B602833009F461C030F4813029
:103B9000D1F1823009F49EC008958A3009F48AC0B8
:103BA0008B3009F46FC0893009F050C08091B502A4
:103BB000813209F04BC08091B9029091BA0202970C
:103BC00008F044C08091E800877F8093E8008091EE
:103BD000E80082FF37C09091F3008091F2000297D5
:103BE00031F48091F100813011F0863021F4809120
:103BF000F10080938A028091E8008B778093E8003F
:103C00000E94782023C08091B502813AF9F4809116
:103C1000E800877F8093E8008091B9029091BA0212
:103C2000892B61F468E082E892E070E00E94871FCF
:103C30008091E8008B778093E800089560E090E041
:103C400080E0F3CF8091B4028111C1CF08958091BB
:103C5000B502813AD9F78091B9029091BA02892BC5
:103C6000A9F78091E800877F8093E8008091E800C1
:103C700080FFFCCF809129018093F1008091E800C2
:103C80008E77BCCF8091B502813201F78091B90265
:103C90009091BA02892BD1F68091E800877F8093BA
:103CA000E8000E9478208091B702809329010E9449
:103CB000910608958091B502813241F68091E80025
:103CC000877F8093E8000E9478208091B8028093DB
:103CD0008B0208958091B502813A09F0B7CF8091A7
:103CE000E800877F8093E8008091E80080FFFCCFA8
:103CF00080918B02C1CF84B7877F84BF0FB6F894C1
:103D0000A8958091600088618093600010926000A7
:103D10000FBE80E890E00FB6F89480936100909316
:103D200061000FBE0E94301C08950E94C8200E94AE
:103D30002521E2EEF0E080818460808378940E9407
:103D4000A423089581E291E00E94381B0895809198
:103D5000B402853031F48091B402853019F00E94AC
:103D6000AA1C08950E947F1C8091B202882399F3B7
:103D70000E943D1C882379F30E94221F0E94910615
:103D8000EACF08959A014091BB025091BC020E9473
:103D9000CA1E0895492F55274330510519F168F47B
:103DA0004130510509F444C04230510509F445C081
:103DB00090E080E050E040E025C04132510549F1FB
:103DC00042325105A9F780E490E046ED52E06115DA
:103DD0007105C1F08BE790E04BE552E06130710571
:103DE00089F0E6CF99278130910581F0009729F07D
:103DF0000297F1F6ECECF1E002C0EAE0F2E0849127
:103E000090E0AF01F901518340830895EAEFF1E0BA
:103E1000F6CF89E090E040E252E06115710591F340
:103E200089E090E049E352E06130710559F3C0CF79
:103E300082E190E049E452E0E5CF8BE390E04EE090
:103E400052E0E0CF80E189BD82E189BD09B400FE86
:103E5000FDCF8091D8008F7D8093D8008091E000C5
:103E600082608093E0008091E00081FDFCCF0895A6
:103E7000AF92BF92CF92DF92FF920F931F93CF9397
:103E8000DF936C01EB018A010E949720F82E8111CB
:103E900023C00115110539F0F80180819181C81BFB
:103EA000D90BC80ED91EB12CA12C2097A9F0809156
:103EB000E80085FD22C08091E8008E778093E800BD
:103EC00001151105A1F0F80180819181A80EB91E9C
:103ED000B182A08285E0F82E8F2DDF91CF911F91C6
:103EE0000F91FF90DF90CF90BF90AF9008950E9408
:103EF00097208823D1F2F82EEFCFF60181916F0140
:103F00008093F1002197FFEFAF1ABF0ACECFFC01DB
:103F10008091BB029091BC0286179707A0F06115B3
:103F2000710529F49091E8009E779093E80090E065
:103F30006115710551F4911108C08091E80082FF6C
:103F400034C080E00895BC01F2CF8091B402882390
:103F5000C1F18530C1F18091E80083FD30C08091CE
:103F6000E80082FDEACF8091E80080FFE1CF8091F8
:103F7000F3002091F200382F6115710519F02830F7
:103F8000310558F091E02830310509F090E020919A
:103F9000E8002E772093E800CBCF81918093F10049
:103FA000615071092F5F3F4FE7CF8091B4028823A2
:103FB00041F0853041F08091E80083FFBECF81E081
:103FC000089582E0089583E00895FC018091BB028A
:103FD0009091BC0286179707A0F06115710529F42E
:103FE0008091E8008E778093E80090E0611571057C
:103FF00051F4911108C08091E80082FF35C080E043
:104000000895BC01F2CF8091B4028823C9F18530B4
:10401000C9F18091E80083FD31C08091E80082FD04
:10402000EACF8091E80080FFE1CF8091F3002091FA
:10403000F200382F6115710519F02830310558F05C
:1040400091E02830310509F090E08091E8008E770A
:104050008093E800CBCF84918093F100319661503A
:1040600071092F5F3F4FE6CF8091B402882341F062
:10407000853041F08091E80083FFBDCF81E0089555
:1040800082E0089583E00895982F973028F08F708C
:104090008093E90081E008959093E900242F762F22
:1040A00050E0981731F07091EC002091ED005091A4
:1040B000F00021FD02C09F5FE8CF3091EB003E7F12
:1040C0003093EB003091ED003D7F3093ED00309167
:1040D000EB0031603093EB007093EC002093ED0027
:1040E0005093F0002091EE0027FDE5CF80E0089589
:1040F0008091B50287FF13C08091E80082FF06C05F
:104100008091E8008B778093E80004C08091B4022E
:104110008111F2CF08958091B4028823D9F3809160
:10412000E80080FFF8CF8091E8008E77ECCF2091F7
:10413000E4003091E50095E6A9012091EC00822F82
:10414000817020FF06C08091E80080FF06C080E0FB
:1041500008952091E80022FD1AC08091B4028823BE
:1041600089F0853089F08091EB0085FD0FC02091AA
:10417000E4003091E50042175307F9F29150E1F65F
:1041800084E0089582E0089583E0089581E0089531
:104190000E9437210E943F21E0EEF0E080818160A3
:1041A0008083E8EDF0E080818F77808319BCA7EDF4
:1041B000B0E08C918E7F8C9380818F7E8083109273
:1041C000B30208950F931F93CF93DF930E9437217B
:1041D0000E943F21C8EDD0E088818F778883888155
:1041E0008068888388818F7D888319BC1092B4028F
:1041F0001092B0021092B2021092B10200EE10E0E2
:10420000F80180818B7F808388818160888342E090
:1042100060E080E00E944420E1EEF0E080818E7F4B
:104220008083E2EEF0E0808181608083808188601D
:104230008083F80180818E7F80838881806188837C
:10424000DF91CF911F910F910895E8EDF0E080810B
:104250008F7E8083E7EDF0E080818160808384E061
:1042600082BF81E08093B3020E94E2200895E8EDCE
:10427000F0E080818E7F80831092E200089510929A
:10428000DA001092E10008951F920F920FB60F927C
:1042900011242F933F934F935F936F937F938F934B
:1042A0009F93AF93BF93EF93FF938091E10082FFC1
:1042B0000BC08091E20082FF07C08091E1008B7FFC
:1042C0008093E1000E94A3238091DA0080FF19C04F
:1042D0008091D80080FF15C08091DA008E7F809396
:1042E000DA008091D90080FF96C080E189BD82E12B
:1042F00089BD09B400FEFDCF81E08093B4020E9425
:10430000841D8091E10080FF19C08091E20080FF50
:1043100015C08091E2008E7F8093E2008091E200E0
:1043200080618093E2008091D80080628093D80001
:1043300019BC85E08093B4020E94981D8091E10031
:1043400084FF2BC08091E20084FF27C080E189BDFB
:1043500082E189BD89B5982F917080FFFBCF809154
:10436000D8008F7D8093D8008091E1008F7E80936C
:10437000E1008091E2008F7E8093E2008091E20074
:1043800081608093E2008091B002882309F449C0E3
:1043900084E08093B4020E94A11D8091E10083FF1C
:1043A00029C08091E20083FF25C08091E100877FD2
:1043B0008093E10082E08093B4021092B002809179
:1043C000E1008E7F8093E1008091E2008E7F8093F8
:1043D000E2008091E20080618093E20042E060E0D0
:1043E00080E00E9444208091F00088608093F0007B
:1043F0000E94951DFF91EF91BF91AF919F918F9179
:104400007F916F915F914F913F912F910F900FBED0
:104410000F901F90189519BC1092B4020E94921D23
:1044200070CF8091E30087FD93E09093B402B3CF07
:104430001F920F920FB60F9211242F933F934F9319
:104440005F936F937F938F939F93AF93BF93CF931C
:10445000DF93EF93FF93D091E900DF708091EC0040
:10446000C82FC17080FDC0E81092E9008091F00073
:10447000877F8093F00078940E945C221092E9007C
:104480008091F00088608093F000CD2BCF70C093B6
:10449000E900FF91EF91DF91CF91BF91AF919F9193
:1044A0008F917F916F915F914F913F912F910F90DD
:1044B0000FBE0F901F901895AAE2B0E0E2E6F2E27C
:1044C0000C94FA2385EB92E02091F100FC012193FA
:1044D000CF01F2E08D3B9F07B9F70E94C11D80918B
:1044E000E80083FF1EC18091B5029091B6029A3018
:1044F00008F017C1E92FF0E0EB53FB4D0C94E523D6
:10450000803899F0823809F00CC18091B9028F701F
:10451000873008F006C18093E9008091EB0085FBAD
:10452000882780F91092E90006C08091B10290912D
:10453000B202911182609091E800977F9093E80019
:104540008093F1001092F1008091E8008E77E5C031
:10455000882309F4D3C0823009F0E3C08091B70208
:104560008111D6C08091B9028F702FEF280F2630AD
:1045700008F0D7C08093E9002091EB0020FFC8C06D
:10458000933031F48091EB0080628093EB00C0C0E7
:104590009091EB0090619093EB0021E030E001C03E
:1045A000220F8A95EAF72093EA001092EA008091A0
:1045B000EB008860EACF8111B4C01091B7021F7779
:1045C0008091E3008078812B8093E3008091E80064
:1045D000877F8093E8000E9478208091E80080FF28
:1045E000FCCF8091E30080688093E30082E01111AA
:1045F00083E08093B40295C08058823008F091C067
:104600008091B7029091B8028C3D23E09207A1F50A
:1046100083E08A838AE289834FB7F894DE01139698
:1046200020E03EE051E2E32FF0E050935700E491A8
:1046300020FF03C0E295EF703F5FEF708E2F90E098
:10464000EA30C0F0C7968D939D932F5F243159F7C0
:104650004FBF8091E800877F8093E8006AE270E0B6
:10466000CE0101960E94871F8091E8008B7780938E
:10467000E80057C0C096E7CF6091B9027091BA02C6
:10468000AE014F5F5F4F0E94C21EBC01892B09F42F
:1046900048C09091E800977F9093E80089819A81C3
:1046A0000E94E51FE1CF8038E1F58091E800877F27
:1046B0008093E8008091B0028093F10045CF811192
:1046C00030C09091B702923060F58091E800877F0A
:1046D0008093E8009093B0020E9478208091B0020D
:1046E000882311F084E005C08091E30087FDFACFB4
:1046F00081E08093B4020E94AC1D13C08091B70288
:10470000813079F481E0933009F080E08093B20247
:104710001092E9008091E800877F8093E8000E9472
:1047200078208091E80083FF0AC08091E800877FAD
:104730008093E8008091EB0080628093EB00AA9662
:10474000E3E00C9416240895CF938091B40288235B
:10475000A1F0C091E900CF709091EC00892F817099
:1047600090FD80E8C82B1092E9008091E80083FD5D
:104770000E945C22CF70C093E900CF9108950E94FF
:10478000C8201092B4020895E8EDF0E080818061C5
:1047900080838AE18A95F1F700C08091D900817009
:1047A000089597FB072E16F4009407D077FD09D0E3
:1047B0000E94222407FC05D03EF4909581959F4FDE
:1047C0000895709561957F4F0895EE0FFF1F059036
:1047D000F491E02D09942F923F924F925F926F9245
:1047E0007F928F929F92AF92BF92CF92DF92EF9281
:1047F000FF920F931F93CF93DF93CDB7DEB7CA1B02
:10480000DB0B0FB6F894DEBF0FBECDBF09942A882C
:10481000398848885F846E847D848C849B84AA84D4
:10482000B984C884DF80EE80FD800C811B81AA8161
:10483000B981CE0FD11D0FB6F894DEBF0FBECDBF2C
:10484000ED010895AA1BBB1B51E107C0AA1FBB1FA6
:10485000A617B70710F0A61BB70B881F991F5A950C
:10486000A9F780959095BC01CD010895FB01DC016D
:1048700004C08D910190801921F441505040C8F737
:10488000881B990B0895FB01DC0102C001900D9279
:1048900041505040D8F70895F999FECF92BD81BD9F
:1048A000F89A992780B50895A8E1B0E042E050E079
:1048B0000C948024262FF999FECF92BD81BDF89AE1
:1048C000019700B4021639F01FBA20BD0FB6F89454
:1048D000FA9AF99A0FBE08950396272F0E945B2437
:1048E0000E945A24252F0E945B24242F0C945B24C1
:1048F0000196272F0E945B240C945A24DC01CB01E3
:10490000FC01F999FECF06C0F2BDE1BDF89A3196DF
:1049100000B40D9241505040B8F70895F894FFCF7D
:1049200074047404C504C50438055405A304A30421
:104930005905CA05D905D905D6164A17DE16A8168F
:10494000AC16E216B016E616F216BC164317C016E1
:10495000F616C416FA162217C816FE162917CE1612
:1049600004170C17B416EA16B816EE16D216081766
:10497000181732174117A216DA165117521958197B
:1049800041194C195E1964196A198022A8229123D1
:0E499000A8229123DB22FC22912353235F23D4
:10499E001C020100000001000000000000000601E2
:1049AE0000000004070000000000002808503C072B
:1049BE00143B1D701D691D621D01E200E900EA0035
:1049CE00B500B600B700CD008301CC008A0192017C
:1049DE0094012102230224022502260227022A0222
:1049EE00B300B4006F0070009F01CB019F02A002C4
:1049FE00818283E200E900EA00B500B600B700CD7F
:104A0E00008301CC008A0192019401210223022429
:104A1E00022502260227022A02B300B4006F00709C
:104A2E00009F01CB019F02A002818283946697C6EC
:0A4A3E003435F6F731333236450205
:00000001FF
