:100000000C94D3010C94F71A0C94F0010C94F001A9
:100010000C94F0010C94F0010C94F0010C94F0019C
:100020000C94F0010C94F0010C943F220C941323D7
:100030000C941A1D0C94F0010C94F0010C94F00136
:100040000C94F0010C94F0010C94F0010C94F0016C
:100050000C94F0010C94BD1D0C94F0010C94F00173
:100060000C94F0010C94F0010C94F0010C94F0014C
:100070000C94F0010C94F0010C94F0010C94F0013C
:100080000C94F0010C94F0010C94F0010C94F0012C
:100090000C94F0010C94F0010C94F0010C94F0011C
:1000A0000C94F0010C94F0010C94F00129001E0056
:1000B0001F002000210022002B0014001A0008005D
:1000C00015001700E10004001600070009000A00EF
:1000D000E0001D001B0006001900050000000000E4
:1000E0002F003000E3000000000000002A0035006F
:1000F0002B002900230024002500260027002A00C9
:100100001C0018000C00120013002D000B000D0045
:100110000E000F00330034001100100036003700CD
:1001200038003100000028002E022E0000000000E0
:100130002C00E200E0004C000000000035021E022E
:100140001F02200221022202010001000100010021
:1001500001002F0001004A004B004E004D00260216
:100160000100010001000100010001000000000089
:100170000100460001000100000000000100010034
:1001800001000100230224022502260227024C005E
:1001900030005F006000610001002E0227025C0059
:1001A0005D005E002D003102010059005A005B0025
:1001B0002E002D020100010001006200000000007D
:1001C00001000100010001000000000045003A00AC
:1001D0003B003C003D003E00010001000100010029
:1001E00001002F0001005000520051004F00260274
:1001F00001000100010001000100010000000000F9
:1002000001000100010001000000000001000100E8
:10021000010001003F004000410042004300440053
:1002200030000100530049004700A8002702AC003D
:10023000AE00AB000100A9000100010001000100B7
:100240000100AA00010001002E00010000000000D2
:100250000100010001000100000000002C03440027
:1002600061006300740079006C002D004D00610096
:100270006E00750066006F0072006D00200028009F
:10028000350078003600290000000E03740073006A
:1002900068006F0072007400000004030904090282
:1002A0003B00020100A0FA09040000010301010063
:1002B0000921110100012240000705810308000106
:1002C00009040100010300000009211101000122BD
:1002D0007B000705820320000112010002000000DC
:1002E000084D44363501000102000105010902A153
:1002F0000185020901A10005091901290815002538
:100300000195087501810205010930093115812522
:100310007F95027508810609381581257F9501753D
:10032000088106050C0A38021581257F950175089C
:100330008106C0C005010980A101850319012AB702
:1003400000150126B700950175108100C0050C0944
:1003500001A101850419012AA002150126A0029518
:100360000175108100C005010906A101050719E00A
:1003700029E7150025019508750181029501750889
:1003800081010507190029FF150026FF0095067554
:100390000881000508190129059505750191029547
:1003A0000175039101C011241FBECFEFDAE0DEBF5B
:1003B000CDBF11E0A0E0B1E0E2E4FBE402C00590B3
:1003C0000D92AE39B107D9F722E0AEE9B1E001C034
:1003D0001D92AB3BB207E1F70E943B140C948925B8
:1003E0000C94000081E0089581E008950E94F401DA
:1003F000089508950E94F9010895A5E0B0E0E3E0B2
:10040000F2E00C94F52449835A833091A10189814B
:100410009A81311119C0662399F0222389F00E9434
:100420007E08182F682F89819A810E945A08698155
:100430007A81812F0E942D0F2596E3E00C941125DF
:100440000E946C08182FF3CF0E947E0869817A8180
:10045000F1CFFC01262F408151816281738184811B
:100460000E94FD01089581E00895CF93DF93EC0190
:1004700060E00E942902BE010E94FA01DF91CF9143
:1004800008950E94901008950E9494100895089570
:100490000E94A9060E9447022FEF84E39CE02150AE
:1004A00080409040E1F700C0000008950E9448029B
:1004B0000E94E11D08950E9448020E94F21D0895C5
:1004C0000F931F93CF93DF938C0161E00E94290269
:1004D000EC01B8010E94F601811106C080E0DF91B5
:1004E000CF911F910F910895B801CE010E94071A74
:1004F0008823A1F3B801CE010E94E416882371F38A
:10050000B801CE010E947919882341F3F801828154
:10051000882361F0CB35FDE5DF0701F158F4C11503
:10052000ECE5DE0791F0CF3DDC4591F0C8010E947B
:10053000F201D5CFCD358DE5D80769F090F0C83AF6
:10054000DD45A1F70E945B02C9CF0E945602C6CFCB
:100550000E94750DF7CF0E94B60CE8CF0E94C00C28
:10056000E5CF0E94C40CE2CF0E94F71C0E94D1028A
:1005700008950E94D5020E94FC1C089508950E94CF
:10058000BE02089581E008950E94C2020895089570
:10059000CF93C82F0E94BF028C2F0E94C402CF911C
:1005A000089580E00E94C80208950E941D1C0E94C8
:1005B000C80208950E941D1C9091A001981721F077
:1005C0008093A0010E94C8020895ABE0B0E0EBEE7A
:1005D000F2E00C94F6244F83588769877A878B87DB
:1005E00061110E94010C1E821D8285E0FE0137967A
:1005F000DE01119601900D928A95E1F78C819D8123
:10060000892B61F449815A816B817C818D819E8126
:100610000E942A0B2B96E2E00C94122589819A8184
:1006200089238F3F79F3CE0101960E943302811115
:10063000E9CFF0CFFC01808191810E94B808089534
:10064000CF93C82F8823C9F08238C9F40E941D1C9B
:1006500081FD13C089E30E94B90B0E94220C2FEF89
:1006600081EE94E0215080409040E1F700C000000E
:1006700089E30E94C10B0E94220CCF910895833818
:10068000A1F40E941D1C80FDF8CF83E50E94B90BE8
:100690000E94220C2FEF81EE94E021508040904088
:1006A000E1F700C0000083E5E4CF8438A1F40E94A4
:1006B0001D1C82FDE2CF87E40E94B90B0E94220C30
:1006C0002FEF81EE94E0215080409040E1F700C090
:1006D000000087E4CECF8CEF8C0F813AB8F48C2FDA
:1006E0000E94BD188111C9CF6C2F8091000190919B
:1006F00001010E94881C882329F08C2F0E94C10BC5
:100700000E94220C8C2F0E94B90BB5CF80E28C0F77
:10071000883048F4C77081E001C0880FCA95EAF7B5
:100720000E94E40BA8CFEBE5EC0FE33040F4F0E0DF
:10073000E45AFE4F808190E00E944A1C9ECFE8E57B
:10074000EC0FE73150F4F0E0EE0FFF1FE25DFE4FDB
:10075000808191810E94601C90CFCD3E08F48DCFA6
:100760008C2F0E94BF140E94921587CF882309F412
:1007700055C0823879F40E941D1C81FF4FC089E367
:100780000E94B90B0E94220C89E30E94C10B0E94B7
:10079000220C0895833859F40E941D1C80FF3EC02E
:1007A00083E50E94B90B0E94220C83E5EECF8438CA
:1007B00059F40E941D1C82FF31C087E40E94B90BCE
:1007C0000E94220C87E4E1CF9CEF980F913AE8F267
:1007D00090E2980F983050F4877091E001C0990F23
:1007E0008A95EAF7892F0E94EA0BD1CF9BE5980FF3
:1007F000933028F490E080E00E944A1C089598E528
:10080000980F973128F490E080E00E94601C0895D2
:100810008D3E20F00E9419150E94921508951F9395
:10082000CF93DF93182FEB010E942003209739F418
:10083000812F0E94B603DF91CF911F9108958FE918
:100840009FE00197F1F700C000002197EFCF70E023
:1008500060E0893311F460E570E00E940F040895B0
:10086000882321F00E94E40B0E94220C0895882323
:1008700021F00E94EA0B0E94220C0895B0E0A0E053
:10088000E4E4F4E00C94EF246C01D62FC72FFC01B4
:100890001281F580F2949FE0F9220E94DA0BE82E93
:1008A0008823B9F0E12E1123A1F08C2F807F8034B2
:1008B00021F080E28D0F8830D0F080918F0282FF8E
:1008C00016C082E00E94850C0E94DA0B91E0E82EAF
:1008D000E926BC2EB2948FE0B822FBE0FB1508F4A9
:1008E00068C0EB2DF0E0E557FA4D0C94E024E12CC4
:1008F000F0CF0C2F0F70C07F11F00295007F1123F5
:1009000099F0002359F080E28D0F883010F0D1115A
:1009100007C0802F0E94E40B0E94220C8D2F41C043
:10092000802F0E94F40BF8CF8D2F0E94B603002376
:1009300009F43FC080E28D0F883010F0D11104C05F
:10094000802F0E94EA0B03C0802F0E94FA0B0E94A6
:10095000220C2FC00C2F0F70C07FC03211F00295F7
:10096000007FDD2381F0D13009F463C0112309F445
:100970006DC0FF2009F463C0F601858180FFCECFF2
:100980008F7085835CC080918F0282FD33C01123FC
:1009900059F0002329F0802F0E94E40B0E94220CC2
:1009A00080E00E94200305C080E00E94B603011190
:1009B000C7CFEB2DE850FF0B349720F40E941D1C8D
:1009C0000E94C802EE2089F00E94D60B80FD0DC067
:1009D000F60112820E94D00B0E946207C6010E949B
:1009E00069060E94D00B0E948407CDB7DEB7E9E00C
:1009F0000C940B25112389F0F11006C00E94040C01
:100A0000802B0E943004D5CF21E0F212F7CF0E9454
:100A1000040C802B0E940B0CCCCFF11006C00E945E
:100A2000180C802F0E943704C4CF31E0F31609F26E
:100A3000F6CF112331F085E08F1508F4BACF802F5F
:100A4000E0CF94E09F1508F4B4CFEBCFFF2049F33B
:100A5000D93349F4FFEF27EE33E0F1502040304026
:100A6000E1F700C000008D2F0E94B603A2CF8C2FAB
:100A700086958695837069F0813009F09ACF8D2F25
:100A80009C2F9370111102C090E080E00E94601CC6
:100A900090CF8D2F9C2F9370111102C090E080E0B9
:100AA0000E944A1C86CF8D2F112329F00E94BF146B
:100AB0000E9492157ECF0E941915FACF8C2F837059
:100AC00009F041C0111175CF4D2F429546954770E1
:100AD000440F440F0D2F0F7010E030E020E0042E83
:100AE00004C0000F111F221F331F0A94D2F760E0C9
:100AF00070E0CB01D4FF0FC06FE070E080E090E0C9
:100B000004C0660F771F881F991F4A95D2F760951A
:100B1000709580959095C695C695C370602B712B86
:100B2000822B932BC23049F058F4C13019F00E9447
:100B30000D073FCF0E94FA063CCF0E94200739CF15
:100B40000E94F70636CF8695112311F08C2F817005
:100B5000882309F42ECF4D2F429546954770440FB8
:100B6000440F0D2F0F7010E030E020E0042E04C081
:100B7000000F111F221F331F0A94D2F760E070E0AC
:100B8000CB01D4FF0FC06FE070E080E090E004C0C4
:100B9000660F771F881F991F4A95D2F76095709549
:100BA00080959095C695C695C370602B712B822B4E
:100BB000932BC23049F058F4C13019F00E94DD0780
:100BC000F8CE0E94CA07F5CE0E94F007F2CE0E942E
:100BD0003907EFCECF70112329F08C2F0E946207C6
:100BE0008D2F0FCF8D2F0E9437048C2F0E948407EA
:100BF000E0CED23F51F160F4D03FB9F0D13F81F067
:100C0000112309F449C0F11089CE8C2F8F7121C0B6
:100C1000D33F11F1D43FA1F780918F0282FD26C00E
:100C20008C2F8F71112311F314C0112349F084E02C
:100C30008F1508F4BECE8C2F8F710E94A807B9CEF5
:100C400095E09F1508F4B5CEF6CF8C2F8F7111115A
:100C5000CDCF0E946207ADCE112329F08C2F8F716A
:100C60000E944C07A6CE0E944607A3CE112349F04E
:100C7000CF718C2F0E94620763E08C2F0E94670C5B
:100C800098CE81E00E94850CE1E0EF1508F091CE4E
:100C900082E00E94850C8DCEF110DACE8C2F8F7100
:100CA000A5CF0F931F93CF93DF93EC0168817981D8
:100CB0008A810E94C3088C010E9403080E94F606E4
:100CC000B801CE010E943E04DF91CF911F910F9198
:100CD0000895CF93DF93EC018B819C81892B29F0C0
:100CE0008881998189238F3F51F4DF91CF910895B5
:100CF000CE010E945106CE010E943502F6CFCE01F0
:100D00000E9460028111F4CF0E94DA0B882369F3FC
:100D10008A81882351F380918F0282FFE6CF82E09F
:100D20000E94850CE2CF90E080E00E944A1C90E097
:100D300080E00E94601C0E94010C0E94220C0E9414
:100D4000AE150E94921508950E94C90B0E94930649
:100D500008950E94F10B0E94A406089592959F7039
:100D6000963091F058F4925F9F70923058F4803F23
:100D700019F030F4883E30F481E008959A5FF4CFA2
:100D8000843FD1F380E00895883EB0F3813FD1F7EE
:100D9000F3CFFC01808191810E94B8080E94AE06C9
:100DA0000895A5E0B0E0E7EDF6E00C94F624259672
:100DB000E2E00C941225A6E0B0E0E1EEF6E00C943F
:100DC000F6242696E2E00C94122508950E94E5068A
:100DD00008950E94E6066093D3017093D401809336
:100DE000D5019093D6010E949306089508950E941C
:100DF000E90608950F931F930091D3011091D40138
:100E00002091D5013091D601602B712B822B932B31
:100E10000E94E9061F910F9108950F931F9300916F
:100E2000D3011091D4012091D5013091D6016023D6
:100E30007123822393230E94E9061F910F91089545
:100E40000F931F930091D3011091D4012091D501EC
:100E50003091D60160277127822793270E94E906E7
:100E60001F910F9108950E94E50608950E9433078F
:100E700008950E9436076093CF017093D00180934C
:100E8000D1019093D2010E949306089560E070E032
:100E9000CB010E94390708950F931F9341E050E062
:100EA00060E070E08A019B0104C0000F111F221F47
:100EB000331F8A95D2F7C901B8010E9439071F91E3
:100EC0000F9108950F931F9341E050E060E070E0B0
:100ED00004C0440F551F661F771F8A95D2F7809173
:100EE000CF019091D001A091D101B091D2018A019E
:100EF0009B01082B192B2A2B3B2BC901B8010E94FF
:100F000039071F910F9108950F931F9341E050E00F
:100F100060E070E004C0440F551F661F771F8A957C
:100F2000D2F7CB01BA0160957095809590950091AC
:100F3000CF011091D0012091D1013091D2016023D5
:100F40007123822393230E9439071F910F910895E3
:100F50000F931F9341E050E060E070E004C0440F45
:100F6000551F661F771F8A95D2F78091CF01909108
:100F7000D001A091D101B091D2018A019B01082733
:100F800019272A273B27C901B8010E9439071F9159
:100F90000F9108950F931F930091CF011091D001ED
:100FA0002091D1013091D201602B712B822B932B98
:100FB0000E9439071F910F9108950F931F9300917D
:100FC000CF011091D0012091D1013091D201602345
:100FD0007123822393230E9439071F910F91089553
:100FE0000F931F930091CF011091D0012091D10157
:100FF0003091D20160277127822793270E943907F9
:101000001F910F9108950895262F277091E001C038
:10101000990F2A95EAF723E0769567952A95E1F7E7
:1010200025E0269FF001279FF00D1124E40FF51F06
:1010300050E040E0682F70E08191DF0111979B0143
:10104000042E02C0369527950A94E2F72170219567
:101050002827292328272C934F5F5F4F45305105C0
:1010600059F70895A82FA77023E0969587952A959C
:10107000E1F725E0289FF001299FF00D1124E60FEC
:10108000F71F50E040E080E0219130E00A2E02C0DE
:10109000369527950A94E2F721703327042E01C074
:1010A000220F0A94EAF7822B4F5F5F4F45305105BC
:1010B00059F70895262F9C3070F4863060F4682F1D
:1010C00070E086E0989F600D711D112442EA51E0A6
:1010D000822F0E9404080895292F9C3068F48630DE
:1010E00058F490E062EA71E036E0239F800D911D94
:1010F00011240E943208089580E00895B0E0A0E035
:10110000E4E8F8E00C94EF248C01C090CF01D0907B
:10111000D001E090D101F090D2018091D301909163
:10112000D401A091D501B091D601C82AD92AEA2AC2
:10113000FB2ACFE1D0E0BC2ED701C6010C2E04C0A3
:10114000B695A795979587950A94D2F780FD09C023
:10115000219788F7B12C8B2DCDB7DEB7E9E00C9441
:101160000B25B8018C2F0E94480F019789F3F3CF0C
:10117000CF93DF93EC010E947E08BE010E94480FCE
:10118000DF91CF9108951F93CF93DF93EB0190915F
:10119000A101992339F0CB010E94B808DF91CF91CA
:1011A0001F910895882369F0CB010E947E08182FB3
:1011B000682FCE010E945A08BE01812F0E94480F5D
:1011C000EDCFCB010E946C08182FF6CF1F93CF9361
:1011D000DF93C091D70116E08091D8018C1304C031
:1011E000DF91CF911F910895D0E01C9FF0011D9FCA
:1011F000F00D1124E752FE4F4081518162817381CD
:10120000848195810E94DB062196C770E5CF4091CD
:10121000090250910A0260910B0270910C028091B8
:101220000D0290910E020E94DB0608952091D701D5
:101230009091D80156E0291302C080E0089530E073
:10124000529FF001539FF00D1124E752FE4F718120
:10125000761306C07081781303C07281741304C0C2
:101260002F5F3F4F2770E7CF81E008951F93CF9303
:10127000DF9380910E02807F09F049C080910B02BC
:10128000882309F444C08091D701C091D8016091AE
:10129000090270910A02A0910C02B0910D02D62FA2
:1012A000D72316E0C81799F190E0109711F0DF3FAF
:1012B00019F401968770F6CF189F9001199F300D91
:1012C0001124F901E752FE4F41814713F2CF4081CB
:1012D0004613EFCF42814111ECCF438154814A1B29
:1012E0005B0B483C510528F780910E028F7080619E
:1012F00080930E02F901E252FE4F80818F7080616F
:10130000808389E092E00E9469060E94E608DF91EE
:10131000CF911F910895A1E1B0E0E1E9F9E00C94CB
:10132000EC248C0185E0F801DE011D9601900D9200
:101330008A95E1F7D8011296EC90129789E0A82ED1
:1013400082E0B82E40910C0250910D0241155105DA
:1013500009F461C19091090220910A02892F822328
:101360008F3F09F458C1CC901196DC9011971396D9
:101370008D909C901497F0900B02F401E41BF50BF8
:10138000FF2009F4F6C080910E02382F307FE83C30
:10139000F10508F0B0C031117BC0FE2CD21217C08D
:1013A0009C1115C0E11013C08F70806180930E02F4
:1013B0000E940709C5010E94690680910E02D801AA
:1013C00015968C938F2D6196ECE00C940825811472
:1013D000910429F08D2D8C218F3F09F038C180E0D8
:1013E00080FF15C04E2D6D2D8C2D0E94160988236F
:1013F00071F089E092E00E94690686E0E9E0F2E09F
:10140000DF011D928A95E9F70E9407093FC0811408
:10141000910429F08D2D8C218F3F09F015C180E0BA
:10142000B82FB170AB2E80FF29C04E2D6D2D8C2DA5
:101430000E941609B82E811121C0CD86DE868D85C9
:101440009E850E94B808292F22952F70223050F0D7
:10145000243078F49F7051F0F8019581907F31F439
:10146000FB2CB0CF9F7011F08823D1F3805E8830C1
:10147000B8F3C8010E946906BA2CF2CFEE2009F435
:10148000A1CF80910E02816080930E02F12C9ACF41
:10149000D21205C09C1103C0EE2009F487C0C80118
:1014A0000E94C906882319F1EE2009F180910E02ED
:1014B000803270F02091090230910A0238872F8320
:1014C00019869B868A868C87CE0107960E946906BC
:1014D00086E0F801A9E0B2E001900D928A95E1F76B
:1014E0000E9436090E940709FF24F3946BCFC801BC
:1014F0000E946906F9CF311112C0782D998A888A25
:10150000A6016E2D89890E94D10689E092E00E9491
:10151000690686E0F50111928A95E9F775CFD21236
:101520000FC09C110DC0E1100BC015968C93C80123
:101530000E94690686E0F50111928A95E9F742CF8B
:10154000C8010E94C906882391F2EE2081F28091A1
:101550000E02803208F4BCCF2091090230910A02B9
:101560003A8329831B829D828C828E83CE010196D1
:10157000ADCFE83CF10508F040C0FE2CEE2009F4A8
:10158000B6CFD2122CC09C112AC080910E0280FDD1
:101590001DC0982F907FD1F015968C931597903F92
:1015A00039F0982F907F905F8F70892B15968C93D0
:1015B000C8010E94690686E0F801A9E0B2E0019046
:1015C0000D928A95E1F70E940709FCCE86E0F801AA
:1015D000A9E0B2E001900D928A95E1F7F3CEC8013F
:1015E0000E94C906811174CF80910E0281608093A0
:1015F0000E02C8010E946906E5CE782D998A888A74
:10160000A6016E2D89890E94D10686E0F50111920E
:101610008A95E9F7D8CFEE2009F469CFC8010E9476
:10162000C906F82E882309F462CF86E0F801A9E004
:10163000B2E001900D928A95E1F789E092E00E9474
:101640001A030E943609BFCF81E08E25E9CE81E0E2
:101650008E25C6CEACE0B0E0E0E3FBE00C94F524D0
:101660004F83588769877A878B879C87CE01079637
:101670000E948B09882369F08A859B85892B39F024
:101680004F815885842F85238F3F09F06BC016E06A
:101690005FC086E0FE013796DE01119601900D9243
:1016A0008A95E1F78A859B85892B89F388859F81B7
:1016B00089238F3F61F32091D80130E0C901019661
:1016C000877099274091D7014817190671F40E9435
:1016D000A9061092D8011092D70186E0E9E0F2E065
:1016E000DF011D928A95E9F7D2CF96E0929FD00153
:1016F000939FB00D1124A752BE4FFE013196019069
:101700000D929A95E1F78093D8010E94E608BFCF29
:10171000819FC001112487529E4F0E948B0988230C
:10172000E9F0E091D7011E9FF0011124E752FE4F2E
:101730004081518162817381848195810E94DB06A1
:101740008091D70190E00196877099278093D70107
:101750008091D7019091D8018913DACF2C96E3E0DC
:101760000C94112569857A858B859C850E94DB0602
:101770008ECF682F80910001909101010E94BE1CC4
:101780000895682F80910001909101010E94C11C71
:10179000089580910001909101010E94C41C089558
:1017A00080911702859585958595089580911702FA
:1017B0008770089590911702977081E009F480E096
:1017C000089580912202089590912202892B80939E
:1017D00022020895809590912202982390932202EC
:1017E000089510922202089590912102892B8093EE
:1017F00021020895809590912102982390932102CF
:101800000895109221020895809118020895089574
:101810000E94070C089590918F0292FF08C090914A
:101820001802981721F0809318020E94080C08955E
:1018300080911802882329F01092180280E00E94FB
:10184000080C0895CF93DF93E0910001F09101011E
:10185000809122028083E0910001F091010180815A
:1018600090912102892B808390911802992381F015
:10187000E0910001F09101018081892B80838091AA
:101880000001909101010E94761C81110E94180CA8
:10189000C0910001D091010148E050E06FE072E09A
:1018A000CE010E943125892B59F088E0FE01AFE07E
:1018B000B2E001900D928A95E1F7CE010E94311CB1
:1018C000DF91CF91089508950E94630C089590913F
:1018D0008F0292FF11C098E0899F90011124622B22
:1018E000609317020E946207809117028595859583
:1018F00085950E94640C08950E94620708951092D5
:10190000170280E00E94640C089590911702809560
:10191000892380931702282F277091F4282F082EEF
:10192000000C330B9217130659F090918F0292FF1F
:1019300007C08595859585950E9484070E947F0C38
:10194000089590918F0292FB222720F9281769F0C1
:1019500080FB92F990938F0280918E0290918F027A
:101960000E94EB0C82E00E94850C089580918F020A
:1019700082FB882780F991E089270E94A10C0895B5
:1019800081E00E94A10C089580E00E94A10C0895BE
:1019900090E080E00E944F2521E0883E9E4F09F0B4
:1019A00020E0822F089582E090E00E94472508956C
:1019B00083E090E00E9447250895CF9384E090E073
:1019C0000E944725C82F82E290E00E944725982F69
:1019D0008C2FCF910895CF93C92F682F84E090E08A
:1019E0000E9455256C2F82E290E00E945525CF91F0
:1019F0000895AB01BC018FE090E00E946725089537
:101A0000AB01BC0183E190E00E946725089560E08E
:101A100070E0CB010E94000D089560E070E0CB0102
:101A20000E94F90C0E94070D089568EE7EEF90E089
:101A300080E00E94732560E082E090E00E945525DE
:101A400060E083E090E00E9455251092D30110924F
:101A5000D4011092D5011092D60160E084E090E0AC
:101A60000E94552564E082E290E00E94552560E0E6
:101A700085E090E00E94552560E086E090E00E94BD
:101A800055256FEF87E090E00E94552540E050E03B
:101A9000BA0188E090E00E94672560E08DE090E068
:101AA0000E94552540E050E0BA0188E190E00E9494
:101AB000672560E087E190E00E94552540E050E016
:101AC000BA018CE190E00E94672570E060E080E25E
:101AD00090E00E94732540E050E0BA0188E190E078
:101AE0000E9467250E940D0D08950E94150D08950E
:101AF000682F8EE090E00E94552508950E94861D73
:101B000060933302709334028093350290933602CF
:101B100060932F02709330028093310290933202CF
:101B20000895089508950E94920D089508950E94C1
:101B3000960D089587E690E10E94131C0E94910D76
:101B40000E94930D08950E943712089508950895F4
:101B50000E94A60D0E94A70D08950E946A100E947F
:101B6000C70208950E94711D0E9427100E94521200
:101B70000E949B110E94AD0D0E94CC160E945C1227
:101B80000E94970D0895AAE0B0E0E9ECFDE00C9406
:101B9000EC240E94BE11982E81110E947E0D83E2DA
:101BA000A82E82E0B82E10E000E0802E802F0E9448
:101BB0009710E82EF501C1905F01C816B1F1809130
:101BC000370281FD0E949D10D12CFF24F394CE2476
:101BD0008C2D8F2129F10E94A30D882399F0DE829C
:101BE0008F82EF2081E009F480E088870E947A1DCF
:101BF0008160782F9A8789874E815F8168858A8581
:101C00000E94E502F801ED5DFD4F8081F826F0822B
:101C100081E0911001C080E02A96ECE00C94082548
:101C2000D394FF0CF6E0DF12D3CF0F5F1F4F0C30C1
:101C3000110509F0BACF8FEF89838A831B820E9436
:101C40007A1D8160782F9D838C8349815A816B81B5
:101C50008D810E94E502DCCF0E94C30D0E943712E5
:101C60000E94D0150E94DA020895CF93DF930E945C
:101C70004D0FEC01811521E5920708F042C0811556
:101C800030E5930708F09DC0883E910530F5803E11
:101C9000910508F092C0883A910588F4853A91053B
:101CA00008F084C08130910509F487C0009709F4D9
:101CB00084C0049708F081C0D0E0C0E07EC08F3BB4
:101CC0009105D0F7C85AD0E0CC0FDD1FC15ADE4FC6
:101CD0000990D881C02DD46470C08115904250F411
:101CE000C11581E0D80708F068C0CD3ED10520F3CA
:101CF000D06563C0C11590E4D907F0F2DF70D06AF7
:101D00005CC0811525E5920700F5811534E5930740
:101D100008F08BC0811543E5940708F073C0C11526
:101D200082E5D80708F469C0CE018370992721E0C5
:101D300030E002C0220F331F8A95E2F7C695C695A0
:101D400080E2C89FE001112454C0C11599E5D9076C
:101D5000A8F4C11528E5D20708F06CC0C11536E516
:101D6000D30708F0A9CF8C2F0E94E40FC82FD0E032
:101D7000DC2FCC27CC27DF71D0621FC0C1154AE50C
:101D8000D40708F45CC0CE0190568115904208F04B
:101D900093CF8D2F8F710E94E40F90E0982F8827AA
:101DA00088279F719C012C2BE901E6CFC55AD0E012
:101DB000C357DE4FC881D0E0D064CE01DF91CF9110
:101DC0000895E4E096958795EA95E1F783702C2FC6
:101DD00026952695237040E2249F90011124382BEC
:101DE0008C2F8370C1E0D0E002C0CC0FDD1F8A953C
:101DF000E2F7C22BD32BDC68E0CFDC2FCC27C16FFE
:101E0000D06ADBCF8370992721E030E002C0220F37
:101E1000331F8A95E2F7C695C69590E2C99FE00107
:101E20001124C22BD32BDA68C8CFD82FCC27C46F8C
:101E3000D06AC3CFDC2FCC27C06FD06ABECF8C2F27
:101E40008F700E94E40F34E0D695C7953A95E1F77C
:101E5000CF709C2FEC01D069B0CF972F7C30A8F4C5
:101E6000663098F470E026E0929F600D711D112499
:101E7000FB0198E4899FE00DF11D1124EE0FFF1F77
:101E8000E455FF4F85919491089580E090E0089586
:101E90000E942D0F0E94350E089582389105B1F1F0
:101EA000B0F48133910509F475C048F48932910585
:101EB00009F469C08A32910509F473C00895853325
:101EC000910509F459C08933910501F10895833EC4
:101ED0009105A9F138F4803E9105F9F0823E910513
:101EE00049F10895863E9105A9F1873E9105C9F112
:101EF000843E910519F520918F0221FF1FC080912A
:101F00008E0284FD14C087EE90E0089520918E0229
:101F10002370A1F080EE90E0089520918E0220FDC4
:101F200047C030918F0230FF09C024FF44C090E0C9
:101F300080E004C020918E0222FDF7CF0895209109
:101F40008E0222FD3BC030918F0230FDE3CF24FF93
:101F5000F5CFEDCF20918E0223FFF0CF24FDE7CF08
:101F6000D2CF20918E0223FD2CC030918F0231FF01
:101F7000EECF84EE90E0089520918E0225FFDECF13
:101F800089E290E0089520918E0225FFD7CF85E366
:101F900090E0089520918E0226FFD0CF8AE290E053
:101FA000089520918E0226FFC9CF81E390E0089525
:101FB00089E390E0089583EE90E0089582EE90E04A
:101FC000089586EE90E0089590918E0292FF06C0EB
:101FD000282F28712830F9F4877F846093FF06C08A
:101FE000282F28712831F1F4877E846120918F0297
:101FF00020FF06C0382F38713830D9F4877F8160D0
:1020000021FF06C0282F28712831D1F4877E8161F5
:1020100094FD877E0895282F24712430F9F68B7F54
:102020008860DCCF282F2471243101F78B7E8861F2
:10203000DDCF382F3171313019F78E7F8860E0CFD6
:10204000282F2171213121F78E7E8861E1CF1092F6
:102050008A0210928B0210928C0210928D020895C7
:10206000CF92DF92EF92FF926B017C010E943712B8
:1020700081110EC00E94861DC61AD70AE80AF90A05
:10208000C0928A02D0928B02E0928C02F0928D0272
:10209000FF90EF90DF90CF9008950F931F930E94D1
:1020A0003712882329F00E94861D1F910F910895F1
:1020B0000E94861D00918A0210918B0220918C0251
:1020C00030918D02600F711F821F931FEECF80E051
:1020D000089508950E94C80C811102C00E94750DD8
:1020E0000E94D30C809337020E94DD0C90938F02E4
:1020F00080938E020E9469100E94D80C682F70E0B5
:1021000090E080E00E94F7066091CF017091D001CD
:102110008091D1019091D2010E94360708950895CF
:102120000E948F10089508950E9493100895E82F3B
:10213000F0E0E356FD4F80810895089580EA8A9586
:10214000F1F7089500C008950E949E100895089523
:102150000E94A7100895A6E0B0E0E1EBF0E10C9436
:10216000F2240E943712F82E6091A902882309F404
:1021700040C086E0E82E8E010F5F1F4FF8018E2DC4
:1021800011928A95E9F7862F90E0B80183569D4F0A
:102190000E946A128823B9F08091900290E046E094
:1021A00050E0B80183569D4F0E94312521E02093D5
:1021B0003802892B91F4F12C0E9444028F2D26962F
:1021C000E6E00C940E25809138028823A1F3F801F3
:1021D0001192EA94E9F710923802A0919002B0E0CF
:1021E000A356BD4F86E0F80101900D928A95E1F764
:1021F000E3CF70E063567D4F8091900290E083566C
:102200009D4F0E94F1120E94A810D8CFF894E82F99
:10221000E295EF70F0E031A1282F2F7081E090E07F
:1022200001C0880F2A95EAF7982F9095932391A3E0
:1022300092A1892B82A3789408950F931F93CF9333
:10224000DF93C6E9D1E089918F3F11F00E9406111A
:1022500081E0CC39D807B9F7C0E9D1E006E911E04F
:1022600089918F3F11F00E9406110C171D07C1F7CD
:10227000DF91CF911F910F910895B0E0A0E0E3E4CA
:10228000F1E10C94F024EC01D62E062F10E0C801E9
:102290008A569E4F7C01FC0180818F3F09F444C027
:1022A000F894E82FE295EF70F0E091A18F7021E0B3
:1022B00030E001C0220F8A95EAF7892F822B81A393
:1022C00082A12095282322A378940E94A210E0E9FD
:1022D000F1E031E0C12C21912F3F59F1A22FA295BD
:1022E000AF70B0E090968C9190E02F7002C0959501
:1022F00087952A95E2F780FD1CC0832FC82A330FEB
:1023000081E0E639F80739F7F70180818F3F11F056
:102310000E94061161E0C11001C060E08D2D0E9495
:10232000A410C00FD11FC882CDB7DEB7E8E00C946F
:102330000C2580E0E3CF809102018091020196E0BC
:10234000811190E09093A90286E0891B809390020E
:102350000E941D118CE0EDE9F2E0DF01982F1D9243
:102360009A95E9F7E1E9F2E0DF011D928A95E9F734
:1023700086E00E9401120E9441020895ACE0B0E0A4
:10238000E4ECF1E10C94F2248E010F5F1F4F8CE01E
:10239000F80111928A95E9F7F12C6F2DC8010E947E
:1023A0003D11F394F6E0FF12F8CF4CE050E0B80195
:1023B00081E992E00E9431257C0121E0892B09F41A
:1023C00020E0E114F10441F08CE0F801A1E9B2E071
:1023D00001900D928A95E1F76091A90270E0635631
:1023E0007D4F46E081E992E00E94021281E090E098
:1023F000E114F10411F40E94AB102C96E6E00C9469
:102400000E250895FF920F931F93CF93DF93F82E1D
:10241000092F162FD72FC42F222349F081E0809354
:102420003B020E947A1D90933A0280933902809178
:102430003B028823A1F08091390290913A020E94D8
:10244000921D059760F0EF2DF02FA12FBD2FCE0F1D
:10245000DF2FD11DEC17FD0739F410923B02CDB7E9
:10246000DEB7E5E00C940F2581918D93F3CF809139
:102470003E02811107C00E94BF24882351F081E0F1
:1024800080933E0281E090913E02913009F080E01D
:10249000089582E080933E020E94BA24F3CF0E9406
:1024A000371208950E944F12809302010E94371242
:1024B00081110E94A01208950E943712811102C05A
:1024C0000E94A312089581E090913F029A3008F093
:1024D00080E008950F931F93CF93DF93EC018B015E
:1024E00080913F028A30B8F4B801CE010E94EE120A
:1024F000C82F811122C080913F028F3FB9F40E9402
:102500007A1D90933D0280933C028C2FDF91CF91F6
:102510001F910F91089580913C0290913D020E947D
:10252000921D843F914000F7C0E0EFCF8F5F809312
:102530003F028A3020F7C1E0E8CF10923F02E5CF9A
:102540000E94B11A08950E94B41A0895B0E0A0E064
:10255000ECEAF2E10C94F1247901C82F880FDD0B2D
:1025600041155105A9F0FE0193E0EE0FFF1F9A956A
:10257000E1F7ED5FFE4F81819281805C9D4F20816C
:1025800030E04217530708F49A01A9010E943E2542
:10259000CE010E949D1BD82E8823D1F00115110574
:1025A000B9F083E0CC0FDD1F8A95E1F7FE01ED5F06
:1025B000FE4F438150E00417150708F4A801CD5FD2
:1025C000DE4F6C817D81605C7D4FC7010E943E259E
:1025D0008D2DCDB7DEB7E7E00C940D250E94E013FA
:1025E00008950E94F7130895A4E0B0E0EAEFF2E145
:1025F0000C94F4246091590270915A0280915B020C
:1026000090915C020E94A11D11E064367105810564
:10261000910518F10E944D106E5F7F4F8F4F9F4FB5
:1026200069837A838B839C8310E000E030E020E0B4
:1026300044E050E0BE016F5F7F4F82E00E94A6122F
:10264000182F882351F00E94861D609359027093C1
:102650005A0280935B0290935C02812F2496E4E0FF
:102660000C941025B0E0A0E0E8E3F3E10C94EE2434
:102670007C015B016A010E94631201E010E0882383
:1026800011F00AE010E0C1E0D0E0B501C701F601A9
:102690000995811104C021960C171D072CF4CDB7A4
:1026A000DEB7EAE00C940A25CC9F9001CD9F300D57
:1026B000300D112490E080E045E34A95F1F70000E9
:1026C000019682179307C1F7E0CFA7E0B0E0EBE6F1
:1026D000F3E10C94EE247B01C0909C01D0909D010D
:1026E00001E010E09E01295F3F4F50E040E070E0C4
:1026F00060E080E00E94A612182F882309F448C0E9
:1027000056018FEFA81AB80A6091550270915602CF
:1027100080915702909158020E94A11D6436710564
:102720008105910568F106E010E09E012F5F3F4FA3
:1027300050E040E070E060E081E00E94A612D82EF8
:1027400066E070E0C5010E94CD1611E09F819813EC
:1027500010E01D2141F10E94861D60935502709387
:102760005602809357029093580286E0FE013196FC
:10277000AFE4B2E001900D928A95E1F711E013C049
:1027800066E070E0C5010E94CD169F818913CBCF12
:1027900086E0F6013196DE01119601900D928A9540
:1027A000E1F71111E2CF86E0EFE4F2E0D70101900A
:1027B0000D928A95E1F7812F2796EAE00C940A257D
:1027C0000F931F93CF93DF93EC018B0145E653E109
:1027D0000E943213882331F044EF52E1B801CE0158
:1027E0000E943213DF91CF911F910F9108950F93A3
:1027F0001F93CF93DF93C0919C01D0919D01CE0197
:10280000019626E0FB01DC0101900D922A95E1F78B
:1028100066E070E00E94CD1688836F817885898597
:102820009A8500914B0210914C0220914D023091FB
:102830004E02601771078207930751F060934B02B5
:1028400070934C0280934D0290934E020E94301080
:10285000DF91CF911F910F9108950E94951F0E94C3
:10286000B20D0E94A21F08950E94A71F0E942C0E65
:102870000E94C11F08950E94131D0E947B1F0E9489
:102880009A0D0E942D140E9434140E94A80DFBCFB3
:102890008091650280FF0DC060911F0170E0660F9E
:1028A000771F6038710570F56115710569F1862F24
:1028B000089581FF07C060911F0184E0689FB00107
:1028C0001124EFCF60911F0182FD0AC08091640244
:1028D0008823A9F020911E0160911F01821710F03A
:1028E00088E0ECCF869FC001112433E0880F991F48
:1028F0003A95E1F7622F70E00E94CC24D2CF68E0D5
:1029000070E0D5CF8FE7089581E00895809165024A
:1029100080FF0CC060911C0170E0759567957595FE
:1029200067956115710549F1862F089581FF06C0ED
:1029300060911C0170E075956795F3CF60911C0163
:1029400082FD0BC0909163029923A1F060911B015D
:1029500080911C01961738F0682F70E0603871057F
:1029600000F38FE70895899FC001112470E00E9451
:10297000CC24F4CF61E070E0D7CF81E008958D3EA4
:1029800031F40E94481481958093690208958E3E27
:1029900019F40E944814F8CF8F3E31F40E94481475
:1029A0008195809368020895803F19F40E9448142D
:1029B000F8CF893F29F40E94861480936A02089513
:1029C0008A3F21F40E9486148195F7CF8B3F31F422
:1029D0000E948614819580936B0208958C3F19F4B0
:1029E0000E948614F8CF9FE0980F983070F4815FB2
:1029F000990B21E030E001C0220F8A95EAF780911F
:102A00006702822B8093670208958D3F31F4809195
:102A1000650281608093650208958E3F21F4809164
:102A200065028260F7CF8F3FB9F7809165028460BD
:102A3000F1CF409168028D3E59F48091690287FF81
:102A40000DC01092690241110BC01092640208C0BF
:102A50008E3E81F48091690218169CF3442381F024
:102A600080916A0290916B02892B09F05AC01092F2
:102A7000630208958F3E49F447FFF0CF1092680239
:102A8000809169028111ECCFE0CF803F19F41416D8
:102A9000ACF3E4CF90916A02893F29F41916F4F659
:102AA00010926A02DBCF8A3F19F497FFD7CFF8CF95
:102AB00090916B028B3F29F497FFD0CF10926B025D
:102AC000CDCF8C3F19F41916CCF3C8CF9FE0980FE7
:102AD000983090F4815F990B21E030E0B90102C099
:102AE000660F771F8A95E2F7CB0180959091670278
:102AF000892380936702B2CF8D3F31F480916502C4
:102B00008E7F80936502AACF8E3F21F4809165026B
:102B10008D7FF7CF8F3F09F0A1CF809165028B7F2A
:102B2000F0CF08950E947A1D9C01909168028091D7
:102B30006902982B21F030936202209361029091F8
:102B40006A0280916B02982B21F0309360022093EF
:102B50005F0286E692E00E943C1C089586E0E6E66D
:102B6000F2E0DF011D928A95E9F71092640210925B
:102B70006302109265020895FC01828181110EC0EA
:102B8000838181110BC08481811108C091E085810E
:102B9000811101C090E0892F8170089581E0FCCF00
:102BA000A6E0B0E0E6EDF5E10C94F52486E0E6E67B
:102BB000F2E0DE01119601900D928A95E1F71092F4
:102BC00068021092690210926A0210926B028B8165
:102BD0009C81892B89F080916102909162020E9410
:102BE000921DAC01909164029923C9F1809120015A
:102BF0008417150608F440C08D819E81892B91F0C1
:102C000080915F02909160020E94921DAC019091B0
:102C10006302992309F471C080911D018417150680
:102C200008F479C0BE016F5F7F4F86E692E00E9494
:102C3000CB1C811105C086E692E00E94BC15811173
:102C40000E94921586E0FE013196A6E6B2E0019060
:102C50000D928A95E1F72696E3E00C9411252091D8
:102C60005E028AE0289F900111242417350720F680
:102C70009F5F9093640202C09F3FD1F71B81112395
:102C800059F00E9448149FEF11160CF491E0899FAF
:102C9000802D1124809368021C81112359F00E9419
:102CA00048149FEF11160CF491E0899F802D112498
:102CB0008093690230916802332309F49DCF2091FB
:102CC0006902222309F498CF45EB3403C001112493
:102CD000992359F09093680245EB24039001112445
:102CE000332339F03093690287CF81E08093680203
:102CF000F3CF81E0809369027FCF20915D028AE06B
:102D0000289F900111242417350708F08BCF9F5F6F
:102D10009093630202C09F3FD1F71D81112359F0A8
:102D20000E9486149FEF11160CF491E0899F802D6C
:102D3000112480936A021E81112359F00E94861487
:102D40009FEF11160CF491E0899F802D1124809340
:102D50006B0230916A02332309F464CF20916B0235
:102D6000222309F45FCF45EB3403C00111249923DA
:102D700059F090936A0245EB240390011124332308
:102D800039F030936B024ECF81E080936A02F3CF2B
:102D900081E080936B0246CF0895FC01680F791F94
:102DA0008FEF91E3E617F70709F408952191822741
:102DB00028E030E087FF06C0880F892721503109BD
:102DC000C9F7F0CF880FFACFCF93DF93EC01FB0167
:102DD0008281882309F433C1C430FDE5DF07C0F5E3
:102DE000CB3F9CE5D90730F49E0122503C4524316D
:102DF0003105B0F50E94DD0C90938F0280938E0216
:102E0000C1318CE5D80709F4EEC008F069C0C930BB
:102E1000ECE5DE0709F4D5C0C8F5C5308CE5D80768
:102E200009F4C7C000F5C330ECE5DE0709F4B9C00A
:102E300008F0BBC0C230DC4509F4ADC080918E0201
:102E400090918F020E94EB0C0E94A90680E008C0BE
:102E5000C236EDE5DE0771F2C63AFDE5DF0751F255
:102E6000DF91CF91089580918E028062C7309CE5FA
:102E7000D90709F493C080918E028061C830DC4587
:102E800008F48CC080918E02806488C080918E028C
:102E90008B7FCD30FCE5DF0709F480C098F480918A
:102EA0008E028E7FCB309CE5D90709F477C08091E4
:102EB0008E028C60CC30DC4508F470C080918E02AC
:102EC0008D7F6CC080918E028F7ECF30FCE5DF0756
:102ED00009F464C008F47BC080918E028F7D5EC0CF
:102EE000CE3F9CE5D90709F47AC050F5C531FCE521
:102EF000DF0709F486C098F480918E02837FC33186
:102F00009CE5D90709F44AC008F471C00E94A906DB
:102F100090918E02892F97FB87F980583FC0CC3F54
:102F2000FCE5DF0709F449C008F055C080918F0225
:102F30008160CB3FDC4509F081CF80938F027ECF4B
:102F4000C230EDE5DE0709F468C0A8F4C1158DE5CF
:102F5000D80709F452C080918F028360C130DD45EB
:102F600060F380918F02982F909591708E7F892BBE
:102F700090FB81F9E2CFC236EDE5DE0709F451C0DE
:102F8000C63AFDE5DF0709F453C0C330DD4509F05B
:102F900055CF80E043C080918E02816080938E0285
:102FA0004DCF80918E028260F9CF80918E02846035
:102FB000F5CF80918E028860F1CF80918F02826080
:102FC000BCCF0E94A90680918E028068E7CF8091D5
:102FD0008E02877FE3CF80918F028E7FAECF80916C
:102FE0008F028D7FAACF80918E028F7BD7CF0E94D8
:102FF000A90680918E028F77D1CF80918F028C7F2E
:103000009CCF80918E0282FB992790F921E0922734
:1030100090FB82F990FB83F9C1CF81E00E94780D8B
:103020000DCF90918E02892F8F7E94FF8061B6CF55
:1030300090918E02892F8E7F90FF8160AFCF81E0CB
:103040000FCF0F931F9341E050E060E070E08A01E2
:103050009B0104C0000F111F221F331F8A95D2F756
:10306000C901B8010E94F7060E94A9061F910F919D
:1030700008958B3109F461C040F58B3071F078F41C
:10308000863009F443C020F4853059F180E008957A
:10309000873009F444C08830C9F781E00895803151
:1030A00009F459C068F48E3089F790913702892F5E
:1030B0008B7F92FF84608093370282FD48C0EDCF02
:1030C000863159F3893149F3E1CF8A32E1F060F476
:1030D0008732A9F020F48E31C8F28D5111C08932A7
:1030E000A9F60E945602D9CF833438F48A33F0F51A
:1030F000853329F0883389F2C9CF833439F680E0EB
:103100000E942118CACF0E94750DC7CF8091370247
:10311000807F8093370281E080936F0208959091C1
:103120003702892F8E7F90FF81608093370280FD68
:10313000B4CF817F80933702B0CF90913702892F2F
:103140008D7F91FF82608093370281FFA6CF8091AF
:1031500037028160EFCF90913702892F877F93FFED
:1031600088608093370283FDF2CF97CF8953C8CF11
:1031700080E008950E94B8180895CF93C82F8091D9
:103180006F028130B9F0882331F08230A1F11092C2
:103190006F0280E00DC00E94E10B8232D1F78C2FCC
:1031A0000E94B81881111BC08C2F0E9439188170A1
:1031B000CF9108950E94E10B823289F38C2F0E94F7
:1031C000BA1881110AC0C43199F060F4CB3029F0EB
:1031D000C03169F782E080936F0281E0E8CF81E03F
:1031E00090E0E5CFC93221F0C833B9F380E0DFCFFA
:1031F00010926F02FBCFC93209F43FC0E8F4C4312A
:10320000E1F128F4C73009F45BC081E0D1CF82EE50
:103210008C0F8A30D0F7CD51C0936E02C33009F4C1
:1032200046C0B0F5C13009F43FC080E291E0C23041
:10323000B1F110926E02E9CFC03509F452C0B8F472
:103240008AE0CF3411F7E0916C02F0916D02309773
:10325000E1F22081082E000C990B820F911D8F3F07
:10326000910509F00CF441C08FEF8083CECFC135BA
:10327000D1F181E0C23539F39BCF80916E02882372
:1032800021F210926E0210926D0210926C02BDCF6C
:10329000C53099F078F08BE191E0C63051F690930B
:1032A0006D0280936C02B1CF8EE592E0F8CF8FE192
:1032B00091E0F5CF8EE191E0F2CF8CE191E0EFCF9C
:1032C00010925E0284E180932001C0931F018CE381
:1032D00080931E0188E080931C0188E280931B018B
:1032E00094CF86EFB0CF8FEFAECF97FFBECF1082D7
:1032F0008CCFCF93DF93EB0186319C4511F50E9473
:10330000E10B9A81992399F08A7A91E009F490E08F
:1033100090937002811109C089E20E94B90B0E944A
:10332000220C80E0DF91CF91089585E3F6CF809164
:103330007002811104C089E20E94C10BF0CF85E3C5
:10334000FBCF81E0EFCF0F931F93CF93DF93C42F79
:10335000D22FFC0182818823C9F0409373020E941E
:103360007A1D909372028093710280E28C0F8830F4
:1033700040F4C77081E001C0880FCA95EAF70E9447
:103380003004DF91CF911F910F9108951091730236
:10339000141332C080917102909172020E94921DAA
:1033A000883C910548F5C0E2CD0F1D17B9F080E2C9
:1033B000810F883040F4177081E001C0880F1A95A2
:1033C000EAF70E943704C83048F481E09D2F9770D7
:1033D00001C0880F9A95EAF70E943004802F0E945E
:1033E0002704C83070F6D77081E001C0880FDA95E5
:1033F000EAF70E943704C5CF80E28C0F883008F6C8
:10340000C77081E001C0880FCA95EAF7F2CF0F9329
:103410009C01CB01243F4CE5340759F1A8F4293D28
:10342000FCE53F0701F12A3D4CE53407D1F1283D89
:103430003C4591F406E221EE41EE68ED7CE50E9408
:10344000A31980E00F910895263FFCE53F07E9F0BE
:10345000B0F0273F3C45F9F0FC018281882339F127
:1034600010927302EFCF07E225EE45EE69ED7CE5A1
:10347000E6CF06E221EE40EE64EF7CE5E0CF07E226
:1034800025EE44EE65EF7CE5DACF06E221EE42EE72
:1034900066EF7CE5D4CF07E225EE46EE67EF7CE5EC
:1034A000CECF08E221E045EE6AED7CE5C8CF81E0B1
:1034B000C9CF8EE1489B02C08150E1F7489BFECF07
:1034C0000895589880E28A95F1F7589A0895FC017A
:1034D0003BE03A95F1F798E020E080E031E040E110
:1034E0004A95F1F7880F489B02C08160232742E08C
:1034F0004A95F1F7000040E14A95F1F7915079F7CC
:1035000090E19A95F1F799B132E03A95F1F7000020
:1035100040E14A95F1F7917092272081920F9083B4
:103520000895A1E0B0E0E7E9FAE10C94F2241982F1
:103530008C017C01E60EF11C0E151F0541F481E0A3
:103540009981911180E02196E6E00C940E250E946D
:10355000591ACE0101960E94671AF80181938F01D2
:10356000EBCF509A589A08955098589AE89AE9E6FD
:10357000F0E080818C7F808308956150770B91E02B
:1035800001C0990F6A95EAF720E031E0911108C077
:10359000222391F0589A80E28A95F1F7589808957D
:1035A000492F482339F0589A232740E24A95F1F7EA
:1035B0009695ECCF5898F9CF5898EDCFFF920F938E
:1035C0001F93CF93DF93EC018C01060F111DC017E1
:1035D000D10729F4CDB7DEB7E5E00C940F25F990BB
:1035E0000E94611A68E08F2D0E94BD1AF0CF1F92D1
:1035F0000F920FB60F9211240F931F932F933F93A7
:103600004F935F936F937F938F939F93AF93BF93EA
:10361000EF93FF93CF93DF930F92CDB7DEB719826D
:103620000E94591ACE0101960E94671A082F06952A
:1036300006950695282F22952570902F9570290FB5
:10364000922F937026952695920F982797708981CF
:10365000982B09F05CC0043008F059C080E18A95CD
:10366000F1F7589A509A82E08A95F1F700C058987D
:1036700088E0089F80011124D801AD5FBE4F1696E7
:10368000ED91FC9117973097A9F060919C01709192
:103690009D0114962D913C911597260F371F119679
:1036A0008D919C911297680F791F13964C911397E7
:1036B0008C910995F801ED5FFE4F6381662351F00F
:1036C00020919C0130919D0184819581820F931FEF
:1036D0000E94DE1A0E94611A80E18A95F1F75898DB
:1036E0005098589A80E18A95F1F7F801ED5FFE4F06
:1036F0006081662351F020919C0130919D01818170
:103700009281820F931F0E94911A0E94591A0F9062
:10371000DF91CF91FF91EF91BF91AF919F918F91E9
:103720007F916F915F914F913F912F911F910F91D9
:103730000F900FBE0F901F9018950F931F93CF936C
:10374000DF93EC0104970CF04CC0F894509A589811
:1037500085E08A95F1F700009C2F969595708C2F47
:103760008570980F892F83709695969523E0CC0FDE
:10377000DD1F2A95E1F7980F8E01092B0E94611A2F
:1037800000C068E0802F0E94BD1A80E18A95F1F7A1
:103790005098589A489B1EC087E090E048991CC0FA
:1037A000FE01ED5FFE4F63816623F9F020919C01DD
:1037B00030919D0184819581820F931F0E94911AFF
:1037C000811113C0509A589A7894DF91CF911F912C
:1037D0000F91089500C0DECF019729F4509A589AAE
:1037E000789480E0F2CF00C0D9CF0E94591A80E2CD
:1037F0008A95F1F75898509A80E18A95F1F7CD5F54
:10380000DE4F6881662351F020919C0130919D012B
:1038100089819A81820F931F0E94DE1A0E94611A89
:10382000789481E0D2CF90939F0180939E01089578
:1038300090937A028093790208950E943712811141
:1038400003C0809174020895E0917902F0917A02A8
:10385000309729F00190F081E02D0995089580E0DE
:103860000895E0917902F0917A02309721F0028078
:10387000F381E02D09950895E0917902F0917A02A3
:10388000309739F022E0DC012C930480F581E02DA3
:103890000995089520917702309178022817390709
:1038A00071F09093780280937702E0917902F09121
:1038B0007A02309721F00680F781E02D099508956E
:1038C00020917502309176022817390771F0909394
:1038D000760280937502E0917902F0917A02309736
:1038E00021F00084F185E02D099508959C012E5F5B
:1038F0003F4FAC01485F5F4F80E02417350709F464
:103900000895F90191919F019923B9F38F5FF5CF44
:10391000662349F0FC01329608962191261729F07A
:10392000E817F907D1F780E0089581E008959C0138
:10393000FC0132969FEF80E04191461751F09F3F86
:1039400019F4411101C0982F8F5F8630A9F79F3F6E
:1039500009F40895290F311D97FD3A95F901628305
:103960000895FC01329608962191261303C0DF01C9
:1039700011971C92E817F907B9F708950E94971C50
:1039800008950E94B11C0895029626E0FC01119250
:103990002A95E9F7089546E050E00E94312521E09C
:1039A000892B09F420E0822F089508950E94D51CE8
:1039B0000895811106C081E080937B020E94D61C8D
:1039C000089582E0F9CF83E080937B020E94D61CA9
:1039D00008950E94D91C089581E080937B020E9483
:1039E000D61C08950E94EC1C0895089508950E9425
:1039F000F61C0895089508950E94F51C0895CF932C
:103A00000E94FA1C0E94BE110E94FB1CC0E08C2F79
:103A10000E949710811105C0CF5FCC30C1F7CF91C4
:103A2000089581E0FCCF85B7806885BF85B7806841
:103A300085BF08951F921FB61F9211248F939F93E5
:103A4000AF93BF9380917C02811113C08091AA0231
:103A50009091AB02A091AC02B091AD024196A11D34
:103A6000B11D8093AA029093AB02A093AC02B093D5
:103A7000AD02BF91AF919F918F911F901FBE1F907C
:103A800018958091B202843031F10E94B4021092F4
:103A90007C0288E190E020E40FB6F894A89580932A
:103AA00060000FBE2093600083B7817F846083BF76
:103AB00083B7816083BF7894889583B78E7F83BFF7
:103AC0000FB6F894A895809160008861809360009B
:103AD000109260000FBE08950E94A9060E94B902CC
:103AE000089582E084BD93E095BD9AEF97BD8093E1
:103AF0006E0008952FB7F8948091AA029091AB02BE
:103B0000A091AC02B091AD022FBF08952FB7F894E9
:103B10006091AA027091AB028091AC029091AD02CB
:103B20002FBF08959C014FB7F8948091AA029091FD
:103B3000AB02A091AC02B091AD024FBF821B930BC0
:103B40000895CF92DF92EF92FF922FB7F894C09032
:103B5000AA02D090AB02E090AC02F090AD022FBF71
:103B6000A7019601261B370B480B590BCA01B90157
:103B7000FF90EF90DF90CF90089578941F921FB63A
:103B80001F9211248F939F93AF93BF938091AA02AA
:103B90009091AB02A091AC02B091AD020196A11D33
:103BA000B11D8093AA029093AB02A093AC02B09394
:103BB000AD02BF91AF919F918F911F901FBE1F903B
:103BC000189587E797E7909301088093000888E1AC
:103BD0009AE00FB6F894A895809360000FBE90937A
:103BE0006000FFCF88E19AE00FB6F894A895809323
:103BF00060000FBE90936000FFCF8091880208950F
:103C000008959C0182E08093E9009FEF8091E80095
:103C1000915085FD06C085ED8A95F1F70000911160
:103C2000F5CF8091E80085FF0CC050E040E066E0F1
:103C300070E0C9010E9433208091E8008E77809364
:103C4000E8000895CF93DF93EC0181E08093E900D1
:103C50008FEF9091E800815095FD06C095ED9A9503
:103C6000F1F700008111F5CF8091E80085FF14C0C5
:103C700050E040E068E070E0CE010E943320809187
:103C8000E8008E778093E80088E0FE01A0E8B2E0CB
:103C900001900D928A95E1F7DF91CF91089580937D
:103CA0007D0270937F0260937E028091B202843025
:103CB00001F582E08093E9008FEF9091E800815058
:103CC00095FD06C095ED9A95F1F700008111F5CFAD
:103CD0008091E80085FF0DC050E040E063E070E0B7
:103CE0008DE792E00E9433208091E8008E778093E8
:103CF000E8000895BC0184E00E944F1E0895BC01B5
:103D000083E00E944F1E08958091B102811109C085
:103D10000E94C3210E9420228091E200846080934F
:103D2000E20008951092B10208950E94EC1C0895DB
:103D30006091AE0281E0611101C080E00E94E31C4D
:103D400008959091B20281E0943009F080E0609192
:103D5000AE020E94E91C089542E061EC81E00E94FD
:103D60003F2142E261EC82E00E943F219091B20249
:103D700081E0943009F080E06091AE020E94D91C8D
:103D800008958091B402833009F461C030F4813029
:103D9000D1F1823009F49EC008958A3009F48AC0B6
:103DA0008B3009F46FC0893009F050C08091B302A4
:103DB000813209F04BC08091B7029091B80202970E
:103DC00008F044C08091E800877F8093E8008091EC
:103DD000E80082FF37C09091F3008091F2000297D3
:103DE00031F48091F100813011F0863021F480911E
:103DF000F100809388028091E8008B778093E8003F
:103E00000E94732123C08091B302813AF9F480911A
:103E1000E800877F8093E8008091B7029091B80214
:103E2000892B61F468E080E892E070E00E948220D3
:103E30008091E8008B778093E800089560E090E03F
:103E400080E0F3CF8091B2028111C1CF08958091BB
:103E5000B302813AD9F78091B7029091B802892BC9
:103E6000A9F78091E800877F8093E8008091E800BF
:103E700080FFFCCF80912D018093F1008091E800BC
:103E80008E77BCCF8091B302813201F78091B70267
:103E90009091B802892BD1F68091E800877F8093BA
:103EA000E8000E9473218091B50280932D010E9449
:103EB000A90608958091B302813241F68091E8000D
:103EC000877F8093E8000E9473218091B6028093DF
:103ED000890208958091B302813A09F0B7CF8091A9
:103EE000E800877F8093E8008091E80080FFFCCFA6
:103EF00080918902C1CF84B7877F84BF0FB6F894C1
:103F0000A8958091600088618093600010926000A5
:103F10000FBE80E890E00FB6F89480936100909314
:103F200061000FBE0E94F21C08950E94C3210E94EE
:103F30002022E2EEF0E080818460808378940E9409
:103F40009F24089581E291E00E94181C08958091B9
:103F5000B202853031F48091B202853019F00E94AE
:103F60006C1D08950E94411D8091B002882399F331
:103F70000E94FF1C882379F30E941D200E94A9063D
:103F8000EACF08950E94C51F0895292F33272330B3
:103F9000310519F168F42130310509F444C02230AB
:103FA000310509F445C090E080E030E020E025C014
:103FB0002132310549F122323105A9F780E490E040
:103FC00026E633E061157105C1F08BE790E02BEE3A
:103FD00032E06130710589F0E6CF99278130910593
:103FE00081F0009729F00297F1F6ECE5F2E002C0CB
:103FF000EAE9F2E0849190E09F01FA0131832083A5
:104000000895EAE8F2E0F6CF89E090E020EB32E0B4
:104010006115710591F389E090E029EC32E061309F
:10402000710559F3C0CF82E190E029ED32E0E5CF90
:104030008BE390E02EE932E0E0CF80E189BD82E1C0
:1040400089BD09B400FEFDCF8091D8008F7D80939B
:10405000D8008091E00082608093E0008091E000D1
:1040600081FDFCCF0895AF92BF92CF92DF92FF9275
:104070000F931F93CF93DF936C01EB018A010E9492
:104080009221F82E811123C00115110539F0F80194
:1040900080819181C81BD90BC80ED91EB12CA12CCF
:1040A0002097A9F08091E80085FD22C08091E8006A
:1040B0008E778093E80001151105A1F0F801808149
:1040C0009181A80EB91EB182A08285E0F82E8F2DB5
:1040D000DF91CF911F910F91FF90DF90CF90BF9014
:1040E000AF9008950E9492218823D1F2F82EEFCF4D
:1040F000F60181916F018093F1002197FFEFAF1AD4
:10410000BF0ACECFFC018091B9029091BA02861706
:104110009707A0F06115710529F49091E8009E774A
:104120009093E80090E06115710551F4911108C079
:104130008091E80082FF34C080E00895BC01F2CF96
:104140008091B2028823C1F18530C1F18091E800ED
:1041500083FD30C08091E80082FDEACF8091E800C5
:1041600080FFE1CF8091F3002091F200382F61159C
:10417000710519F02830310558F091E028303105EB
:1041800009F090E02091E8002E772093E800CBCF53
:1041900081918093F100615071092F5F3F4FE7CF0C
:1041A0008091B202882341F0853041F08091E8008F
:1041B00083FFBECF81E0089582E0089583E00895F3
:1041C000FC018091B9029091BA0286179707A0F07E
:1041D0006115710529F48091E8008E778093E800DD
:1041E00090E06115710551F4911108C08091E800CB
:1041F00082FF35C080E00895BC01F2CF8091B20209
:104200008823C9F18530C9F18091E80083FD31C070
:104210008091E80082FDEACF8091E80080FFE1CF45
:104220008091F3002091F200382F6115710519F08B
:104230002830310558F091E02830310509F090E040
:104240008091E8008E778093E800CBCF84918093B3
:10425000F1003196615071092F5F3F4FE6CF809199
:10426000B202882341F0853041F08091E80083FF5D
:10427000BDCF81E0089582E0089583E00895982FEE
:10428000973028F08F708093E90081E00895909333
:10429000E900242F762F50E0981731F07091EC0050
:1042A0002091ED005091F00021FD02C09F5FE8CF0A
:1042B0003091EB003E7F3093EB003091ED003D7F7D
:1042C0003093ED003091EB0031603093EB00709350
:1042D000EC002093ED005093F0002091EE0027FDBC
:1042E000E5CF80E008958091B30287FF13C08091ED
:1042F000E80082FF06C08091E8008B778093E80099
:1043000004C08091B2028111F2CF08958091B2026F
:104310008823D9F38091E80080FFF8CF8091E800EE
:104320008E77ECCF2091E4003091E50095E6A9016D
:104330002091EC00822F817020FF06C08091E80060
:1043400080FF06C080E008952091E80022FD1AC099
:104350008091B202882389F0853089F08091EB004A
:1043600085FD0FC02091E4003091E500421753070E
:10437000F9F29150E1F684E0089582E0089583E037
:10438000089581E008950E9432220E943A22E0EED0
:10439000F0E0808181608083E8EDF0E080818F77BC
:1043A000808319BCA7EDB0E08C918E7F8C938081C7
:1043B0008F7E80831092B10208950F931F93CF9345
:1043C000DF930E9432220E943A22C8EDD0E0888119
:1043D0008F77888388818068888388818F7D8883B0
:1043E00019BC1092B2021092AE021092B00210925A
:1043F000AF0200EE10E0F80180818B7F808388811E
:104400008160888342E060E080E00E943F21E1EE2D
:10441000F0E080818E7F8083E2EEF0E08081816039
:104420008083808188608083F80180818E7F808393
:10443000888180618883DF91CF911F910F910895CA
:10444000E8EDF0E080818F7E8083E7EDF0E0808111
:104450008160808384E082BF81E08093B1020E940A
:10446000DD210895E8EDF0E080818E7F8083109259
:10447000E20008951092DA001092E10008951F9270
:104480000F920FB60F9211242F933F934F935F9388
:104490006F937F938F939F93AF93BF93EF93FF930C
:1044A0008091E10082FF0BC08091E20082FF07C093
:1044B0008091E1008B7F8093E1000E949E24809197
:1044C000DA0080FF19C08091D80080FF15C080916C
:1044D000DA008E7F8093DA008091D90080FF96C049
:1044E00080E189BD82E189BD09B400FEFDCF81E094
:1044F0008093B2020E94841E8091E10080FF19C067
:104500008091E20080FF15C08091E2008E7F809351
:10451000E2008091E20080618093E2008091D80007
:1045200080628093D80019BC85E08093B2020E941B
:10453000981E8091E10084FF2BC08091E20084FFEF
:1045400027C080E189BD82E189BD89B5982F91702E
:1045500080FFFBCF8091D8008F7D8093D800809121
:10456000E1008F7E8093E1008091E2008F7E809356
:10457000E2008091E20081608093E2008091AE02CF
:10458000882309F449C084E08093B2020E94A11EEE
:104590008091E10083FF29C08091E20083FF25C064
:1045A0008091E100877F8093E10082E08093B202F6
:1045B0001092AE028091E1008E7F8093E1008091A5
:1045C000E2008E7F8093E2008091E2008061809320
:1045D000E20042E060E080E00E943F218091F00034
:1045E00088608093F0000E94951EFF91EF91BF912B
:1045F000AF919F918F917F916F915F914F913F917B
:104600002F910F900FBE0F901F90189519BC10920C
:10461000B2020E94921E70CF8091E30087FD93E06A
:104620009093B202B3CF1F920F920FB60F92112444
:104630002F933F934F935F936F937F938F939F93AA
:10464000AF93BF93CF93DF93EF93FF93D091E900A4
:10465000DF708091EC00C82FC17080FDC0E810921F
:10466000E9008091F000877F8093F00078940E94A9
:1046700057231092E9008091F00088608093F00049
:10468000CD2BCF70C093E900FF91EF91DF91CF91D7
:10469000BF91AF919F918F917F916F915F914F915A
:1046A0003F912F910F900FBE0F901F901895AAE287
:1046B000B0E0EDE5F3E20C94F52483EB92E0209179
:1046C000F100FC012193CF01F2E08B3B9F07B9F78A
:1046D0000E94C11E8091E80083FF1EC18091B30239
:1046E0009091B4029A3008F017C1E92FF0E0E95632
:1046F000FA4D0C94E024803899F0823809F00CC10E
:104700008091B7028F70873008F006C18093E9006E
:104710008091EB0085FB882780F91092E90006C0A4
:104720008091AF029091B002911182609091E80067
:10473000977F9093E8008093F1001092F1008091B0
:10474000E8008E77E5C0882309F4D3C0823009F0F1
:10475000E3C08091B5028111D6C08091B7028F70FD
:104760002FEF280F263008F0D7C08093E900209162
:10477000EB0020FFC8C0933031F48091EB008062E1
:104780008093EB00C0C09091EB0090619093EB00A0
:1047900021E030E001C0220F8A95EAF72093EA0079
:1047A0001092EA008091EB008860EACF8111B4C0DA
:1047B0001091B5021F778091E3008078812B809360
:1047C000E3008091E800877F8093E8000E947321D6
:1047D0008091E80080FFFCCF8091E30080688093A7
:1047E000E30082E0111183E08093B20295C080580B
:1047F000823008F091C08091B5029091B6028C3D54
:1048000023E09207A1F583E08A838AE289834FB788
:10481000F894DE01139620E03EE051E2E32FF0E051
:1048200050935700E49120FF03C0E295EF703F5F83
:10483000EF708E2F90E0EA30C0F0C7968D939D9375
:104840002F5F243159F74FBF8091E800877F809315
:10485000E8006AE270E0CE0101960E948220809119
:10486000E8008B778093E80057C0C096E7CF60914F
:10487000B7027091B802AE014F5F5F4F0E94C21F36
:10488000BC01892B09F448C09091E800977F909370
:10489000E80089819A810E94E020E1CF8038E1F52B
:1048A0008091E800877F8093E8008091AE0280933A
:1048B000F10045CF811130C09091B502923060F582
:1048C0008091E800877F8093E8009093AE020E9479
:1048D00073218091AE02882311F084E005C080919D
:1048E000E30087FDFACF81E08093B2020E94AC1E04
:1048F00013C08091B502813079F481E0933009F0E2
:1049000080E08093B0021092E9008091E800877FF8
:104910008093E8000E9473218091E80083FF0AC021
:104920008091E800877F8093E8008091EB008062AF
:104930008093EB00AA96E3E00C9411250895CF93A1
:104940008091B2028823A1F0C091E900CF709091CC
:10495000EC00892F817090FD80E8C82B1092E9004F
:104960008091E80083FD0E945723CF70C093E90037
:10497000CF9108950E94C3211092B2020895E8EDEC
:10498000F0E08081806180838AE18A95F1F700C040
:104990008091D9008170089597FB072E16F400943A
:1049A00007D077FD09D00E941D2507FC05D03EF4F5
:1049B000909581959F4F0895709561957F4F0895CB
:1049C000EE0FFF1F0590F491E02D09942F923F9276
:1049D0004F925F926F927F928F929F92AF92BF920F
:1049E000CF92DF92EF92FF920F931F93CF93DF93BB
:1049F000CDB7DEB7CA1BDB0B0FB6F894DEBF0FBE18
:104A0000CDBF09942A88398848885F846E847D8464
:104A10008C849B84AA84B984C884DF80EE80FD8066
:104A20000C811B81AA81B981CE0FD11D0FB6F894DC
:104A3000DEBF0FBECDBFED010895AA1BBB1B51E128
:104A400007C0AA1FBB1FA617B70710F0A61BB70BFE
:104A5000881F991F5A95A9F780959095BC01CD01A3
:104A60000895FB01DC0104C08D910190801921F4AF
:104A700041505040C8F7881B990B0895FB01DC0199
:104A800002C001900D9241505040D8F70895F99915
:104A9000FECF92BD81BDF89A992780B50895A8E10F
:104AA000B0E042E050E00C947B25262FF999FECF30
:104AB00092BD81BDF89A019700B4021639F01FBA71
:104AC00020BD0FB6F894FA9AF99A0FBE089503968E
:104AD000272F0E9456250E945525252F0E945625D6
:104AE000242F0C9456250196272F0E9456250C94AE
:104AF0005525DC01CB01FC01F999FECF06C0F2BDC2
:104B0000E1BDF89A319600B40D9241505040B8F78B
:104B10000895F894FFCF79047904AA04AA0437050C
:104B20005305D904D9045E05EA05F905F9057B2387
:104B3000A3238C24A3238C24D623F7238C244E2454
:024B40005A24F5
:104B4200190201000000010000000000000006013F
:104B520000000004070000000000002808503C0785
:104B620014FD1D221E011E7F1E7A1E001E01E20080
:104B7200E900EA00B500B600B700CD008301CC0021
:104B82008A019201940121022302240225022602B3
:104B920027022A02B300B4006F007000818283E210
:104BA20000E900EA00B500B600B700CD008301CCF1
:104BB200008A019201940121022302240225022685
:104BC2000227022A02B300B4006F007000818283C0
:0E4BD200946697C63435F6F73133323640021A
:00000001FF
